:100000000C94460018950000189500001895000003
:10001000189500001895000018950000189500002C
:1000200018950000189500000C94241B18950000EA
:1000300018950000189500000C94D61A1895000029
:100040000C94881A189500000C947F0318950000F2
:1000500018950000189500001895000018950000EC
:1000600018950000189500001895000018950000DC
:1000700018950000189500001895000018950000CC
:100080001895000018950000189500008FEF8DBF9F
:10009000C0ECE8E34E2E80E18EBFD0E1FFE05F2EA2
:1000A000A89584B7082E877F84BF88E1992781BDF2
:1000B00091BDEEEFFFE0A0E0B1E088278D9331978E
:1000C000E9F783E289B980E08093900088E18AB9FA
:1000D00066248FEF8ABBD598D6988FEF87BB8FEFBA
:1000E00081BB80E08093610080E080936400A098F1
:1000F000179A169A0E94421C87E083BF80E08FBD4A
:1001000081E08EBD85E085BD74B7777F74BF8FE1D8
:1001100081BD87E081BD81B5886081BD00E010E0D0
:1001200020E030E0A3E8B3E00D931D932D933C93C2
:1001300000E010E020E030E0A7E8B3E00D931D936D
:100140002D933C9300E010E020E030E0ABE8B3E01A
:100150000D931D932D933C93A8957894C79A929AEA
:10016000939A949A959A969A80E0D2018C9381E022
:100170000E94751C80E0D2018C9381E00E94751C66
:100180000E942316249682E00E94711C80E8D2010E
:100190008C9381E00E94751C81E0D2018C9381E0F8
:1001A0000E94751C0E942316249682E00E94711CF6
:1001B00080E8D2018C9381E00E94751C82E0D2011C
:1001C0008C9381E00E94751C0E942316249682E085
:1001D0000E94711C80E8D2018C9381E00E94751C02
:1001E00083E0D2018C9381E00E94751C0E9423164B
:1001F000249682E00E94711C80E8D2018C9381E0F9
:100200000E94751C84E0D2018C9381E00E94751CD1
:100210000E942316249682E00E94711C80E8D2017D
:100220008C9381E00E94751C85E0D2018C9381E063
:100230000E94751C0E942316249682E00E94711C65
:100240008DEF8093510287EF809352028CEE809362
:1002500053028091510280934E028091520280930A
:100260004F02809153028093500284E6809354029F
:1002700084E68093550280E080934D02ECEAF1E43D
:100280000E94111D0E94C51B0E94CC1B0E94B91B1D
:10029000A1E0B1E08C93009101010A3711F00C94B8
:1002A00053010E94710100914D02043A11F00C9427
:1002B000530180E395E79DBD8CBD87E083BF81E05E
:1002C0008EBD85E085BD579A77B7716077BF77B7E8
:1002D000746077BF77B7706477BF0C946D01F89442
:1002E000FFCFA89580E080934D0200E010E020E071
:1002F00030E0A3E4B2E00D931D932D933C93A0E175
:10030000B3E0BA93AA930E9443032296A2E1B3E01A
:10031000BA93AA930E9443032296A6E1B3E0BA934C
:10032000AA930E9443032296A8E1B3E0BA93AA934A
:100330000E9443032296ACE1B3E0BA93AA930E94D1
:1003400043032296A0E2B3E0BA93AA930E94430328
:100350002296A2E2B3E0BA93AA930E9443032296A4
:10036000A6E2B3E0BA93AA930E9443032296A8E2BE
:10037000B3E0BA93AA930E9443032296ACE2B3E09F
:10038000BA93AA930E9443032296A4E3B3E0BA93DC
:10039000AA930E9443032296A8E3B3E0BA93AA93D8
:1003A0000E9443032296ACE3B3E0BA93AA930E945F
:1003B00043032296A0E4B3E0BA93AA930E944303B6
:1003C0002296ABE7B3E0BA93AA930E944303229626
:1003D000ACE7B3E0BA93AA930E9443032296ADE739
:1003E000B3E0BA93AA930E9443032296A8E4B3E031
:1003F000BA93AA930E9443032296ACE4B3E0BA9363
:10040000AA930E9443032296A0E5B3E0BA93AA936D
:100410000E9443032296A4E5B3E0BA93AA930E94F4
:1004200043032296AFE7B3E0BA93AA930E94430333
:100430002296A0E8B3E0BA93AA930E9443032296BF
:10044000A1E8B3E0BA93AA930E9443032296ACEAD0
:10045000B2E0BA93AA930E9443032296A0EBB2E0C3
:10046000BA93AA930E9443032296A4EBB2E0BA93F4
:10047000AA930E9443032296A8EBB2E0BA93AA93F0
:100480000E9443032296ADEEB2E0BA93AA930E9473
:1004900043032296AEEEB2E0BA93AA930E944303BE
:1004A0002296AFEEB2E0BA93AA930E94430322963B
:1004B000ACEBB2E0BA93AA930E9443032296A0EC5D
:1004C000B2E0BA93AA930E9443032296A4ECB2E04E
:1004D000BA93AA930E9443032296A8ECB2E0BA937F
:1004E000AA930E9443032296A1EFB2E0BA93AA9383
:1004F0000E9443032296A2EFB2E0BA93AA930E940D
:1005000043032296A3EFB2E0BA93AA930E94430357
:100510002296ACECB2E0BA93AA930E9443032296CF
:10052000A0EDB2E0BA93AA930E9443032296A4EDF1
:10053000B2E0BA93AA930E9443032296A8EDB2E0D8
:10054000BA93AA930E9443032296A5EFB2E0BA930E
:10055000AA930E9443032296A6EFB2E0BA93AA930D
:100560000E9443032296A7EFB2E0BA93AA930E9497
:1005700043032296ACEDB2E0BA93AA930E944303E0
:100580002296A0EEB2E0BA93AA930E944303229669
:10059000A4EEB2E0BA93AA930E9443032296A8EE77
:1005A000B2E0BA93AA930E9443032296A9EFB2E065
:1005B000BA93AA930E9443032296AAEFB2E0BA9399
:1005C000AA930E9443032296ABEFB2E0BA93AA9398
:1005D0000E9443032296A4E7B3E0BA93AA930E9431
:1005E00043032296A5E7B3E0BA93AA930E9443037C
:1005F000229681E090E00E945A1CA8E0B1E0E3E47A
:10060000F2E00E94371DE0EBF1E40E94111D0E9410
:10061000C51BA0E2BFE0E3E4F2E00E94371D0E94A8
:10062000BD1B0E94CC1B0E94B91BA1E0B1E08C93C2
:10063000009101010B3711F00C9442030E94B91B89
:10064000A1E0B1E08C93009101010C3711F00C9402
:1006500042030E94B91BA1E0B1E08C93009101011B
:100660000D3711F00C9442030E94B91BA1E0B1E0D8
:100670008C93009101010E3711F00C94420384EA2F
:1006800080934D020895A8E0B1E088278C930E94E2
:10069000B91BA1E0B1E08C93009101010F3211F080
:1006A0000C9454030C946003A1E0B1E08C91A8E099
:1006B000B1E00E94B21B8D9388278C930C94470362
:1006C000A8E0B1E00E94871DA881B9810D931D9318
:1006D0002D933D93A3E4B2E00D911D912D913C919A
:1006E000A881B9814D915D916D917C910E94171DFA
:1006F000A3E4B2E00D931D932D933D9308950F92C3
:100700001F922F923F924F925F927F92AF92BF9231
:100710000F931F932F933F934F935F936F937F9309
:100720008F939F93AF93BF93CF93DF93EF93FF93F9
:100730008FB78F938BB78F9388278BBFA89577B789
:100740007E7F77BF77B77B7F77BF77B77F7B77BFBA
:100750000E94B91BA6E0B1E08D9388278C9300918D
:100760005502083C11F00C94650600915402083CB7
:1007700011F00C947A05A6E0B1E0E4EBF1E40E94FC
:10078000111D0E94D71D11F00C945B05E6EBF1E4FE
:100790000E94111D0E94C51B0E94CC1B0E94B91B08
:1007A000A6E0B1E08D9388278C93A6E0B1E0EAEB58
:1007B000F1E40E94111D0E94D71D11F00C946104F8
:1007C00000E010E020E030E0A3E3B2E00D931D93E1
:1007D0002D933C93A3E3B2E0BA93AA930E942A0814
:1007E0002296A3E3B2E00D911D912D913C9140E83A
:1007F00050E060E070E00E941C1DA3E3B2E00D93A6
:100800001D932D933D93A3E3B2E00D911D912D9186
:100810003C9142E050E060E070E00E94BF1CA3E326
:10082000B2E00D931D932D933D9340E050E060E0C6
:1008300070E0A3E3B2E00D911D912D913C910E94D7
:10084000211D1CF011F00C9427040C942B0491989A
:10085000909A0C94410440E050E060E070E0A3E323
:10086000B2E00D911D912D913C910E94211D0CF43F
:1008700002C00C943F04919A90980C944104919872
:100880009098A3E3B2E00D911D912D913C910E94AF
:100890002A1CAAE7B3E00C9380917A03D2018C93CF
:1008A00081E00E94751C80E0D2018C9381E00E945F
:1008B000751C0E942316249682E00E94711C0C94E1
:1008C0005905ECEBF1E40E94111D0E94D71D11F0B7
:1008D0000C94930480E080937E03AEE7B3E0BA9378
:1008E000AA930E942A08229680917E03D2018C93BB
:1008F00081E00E94751C81E0D2018C9381E00E940E
:10090000751C0E942316249682E00E94711C00919F
:100910007E03003811F00C949004929A0C94910488
:1009200092980C945905EEEBF1E40E94111D0E947F
:10093000D71D11F00C94C50480E08093EC02ACEE5E
:10094000B2E0BA93AA930E942A0822968091EC0200
:10095000D2018C9381E00E94751C82E0D2018C93BD
:1009600081E00E94751C0E942316249682E00E945A
:10097000711C0091EC02003811F00C94C204939A9F
:100980000C94C30493980C945905E0ECF1E40E9494
:10099000111D0E94D71D11F00C94F70480E0809384
:1009A000F002A0EFB2E0BA93AA930E942A0822961E
:1009B0008091F002D2018C9381E00E94751C83E04B
:1009C000D2018C9381E00E94751C0E94231624960C
:1009D00082E00E94711C0091F002003811F00C942A
:1009E000F404949A0C94F50494980C945905E2EC50
:1009F000F1E40E94111D0E94D71D11F00C942905ED
:100A000080E08093F402A4EFB2E0BA93AA930E942C
:100A10002A0822968091F402D2018C9381E00E94F0
:100A2000751C84E0D2018C9381E00E94751C0E94A9
:100A30002316249682E00E94711C0091F402003873
:100A400011F00C942605959A0C94270595980C9412
:100A50005905E4ECF1E40E94111D0E94D71D11F02C
:100A60000C94590580E08093F802A8EFB2E0BA93A5
:100A7000AA930E942A0822968091F802D2018C93B0
:100A800081E00E94751C85E0D2018C9381E00E9478
:100A9000751C0E942316249682E00E94711C00910E
:100AA000F802003811F00C945805969A0C945905E8
:100AB00096980C947805E6ECF1E40E94111D0E94D2
:100AC000D71D11F00C94690584E6809354020C94B0
:100AD0007805E8ECF1E40E94111D0E94D71D11F089
:100AE0000C94780584E68093550284E68093540242
:100AF0000C946306A6E0B1E0EAECF1E40E94111D5B
:100B00000E94D71D11F00C9420060E94B91BA1E091
:100B1000B1E08C9300910101043211F00C941E0697
:100B200088EC8093540290989198929A939A949A10
:100B3000959A969A80E080937A0380E880937E036A
:100B400080E88093EC0280E88093F00280E8809354
:100B5000F40280E88093F80280917A03D2018C93AA
:100B600081E00E94751C80E0D2018C9381E00E949C
:100B7000751C0E942316249682E00E94711C8091AD
:100B80007E03D2018C9381E00E94751C81E0D2012A
:100B90008C9381E00E94751C0E942316249682E0AB
:100BA0000E94711C8091EC02D2018C9381E00E9422
:100BB000751C82E0D2018C9381E00E94751C0E941A
:100BC0002316249682E00E94711C8091F002D201CB
:100BD0008C9381E00E94751C83E0D2018C9381E0AC
:100BE0000E94751C0E942316249682E00E94711CAC
:100BF0008091F402D2018C9381E00E94751C84E004
:100C0000D2018C9381E00E94751C0E9423162496C9
:100C100082E00E94711C8091F802D2018C9381E0E5
:100C20000E94751C85E0D2018C9381E00E94751CA6
:100C30000E942316249682E00E94711C0C94630685
:100C4000ECECF1E40E94111D0E94D71D11F00C94F0
:100C50002D060E945E160C946306EEECF1E40E94F1
:100C6000111D0E94D71D11F00C943A060E947318B2
:100C70000C946306E0EDF1E40E94111D0E94D71D63
:100C800011F00C9447060C9443060C946306E8ECB0
:100C9000F1E40E94111D0E94D71D11F00C9458061A
:100CA00084E68093550284E6809354020C94630694
:100CB000E2EDF1E40E94111D0E94D71D11F00C9489
:100CC00063060E94C8060C948E06A6E0B1E0E2ED31
:100CD000F1E40E94111D0E94D71D11F00C947406BE
:100CE0000E94C8060C948E06E4EDF1E40E94111DEA
:100CF0000E94D71D11F00C94820688EC8093550257
:100D00000C948E06E6ECF1E40E94111D0E94D71DA2
:100D100011F00C948E0684E68093540200915402E4
:100D2000043681E009F080E08F930091550204368B
:100D300081E009F080E09F91892B882311F40C94C5
:100D4000A40677B7716077BF77B7746077BF77B75E
:100D5000706477BF8F918BBF8F918FBFFF91EF91A1
:100D6000DF91CF91BF91AF919F918F917F916F91C3
:100D70005F914F913F912F911F910F91BF90AF9035
:100D80007F905F904F903F902F901F900F901895FD
:100D9000A8E0B1E088278C93E6EDF1E40E94111DF4
:100DA0000E94C51B0E94CC1B0E94B91BA1E0B1E0B0
:100DB0008C9300910101063211F00C94E1060C9421
:100DC000ED06A1E0B1E08C91A8E0B1E00E94B21B79
:100DD0008D9388278C930C94D406EAEDF1E40E945D
:100DE000111D0E94C51B0E94CC1BE8E0F1E093E6B8
:100DF00002E332E0A9E7B1E00E94ED1DABE4B1E00F
:100E00002D9388278C93ACEAB1E00E94871DABE458
:100E1000B2E00C9340914B024F93A9E7B1E00E94DE
:100E2000051D082F4F91041781E009F080E08F9392
:100E3000ABE4B1E00D911C91023050E0150781E068
:100E400009F080E09F918923882311F40C942908EC
:100E5000E9E7F1E09FE20AE036E0AFEDB1E00E94A1
:100E6000ED1DABE4B1E02D9388278C9381E0809356
:100E70000301ABE4B1E04D915C91A3E0B1E00D91D1
:100E800011270417150718F011F00C942908E3E056
:100E9000F1E0019111274BE050E00E94B51CE4ED18
:100EA000F1E0E00FF11F01E0A6E0B1E00E94BF1DFC
:100EB00081E0A3E0B1E00D9111274BE050E00E94EA
:100EC000B51CA4EDB1E0A00FB11F0E947B1CA6E0F1
:100ED000B1E0EEEDF1E40E94111D0E94D71D11F06A
:100EE0000C948807A3E0B1E00D9111274BE050E08E
:100EF0000E94B51CA4EDB1E0A00FB11F0E94871D98
:100F0000ACE7B2E00D931D932D933D930C94210813
:100F1000E0EEF1E40E94111D0E94D71D11F00C9427
:100F2000A707A3E0B1E00D9111274BE050E00E942C
:100F3000B51CA4EDB1E0A00FB11F0E94871DA4E86D
:100F4000B2E00D931D932D933D930C942108E2EE96
:100F5000F1E40E94111D0E94D71D11F00C94C607E8
:100F6000A3E0B1E00D9111274BE050E00E94B51CC9
:100F7000A4EDB1E0A00FB11F0E94871DACE8B2E064
:100F80000D931D932D933D930C942108E4EEF1E411
:100F90000E94111D0E94D71D11F00C94E507A3E0DB
:100FA000B1E00D9111274BE050E00E94B51CA4ED7B
:100FB000B1E0A00FB11F0E94871DA4E9B2E00D931C
:100FC0001D932D933D930C942108E6EEF1E40E94CD
:100FD000111D0E94D71D11F00C940408A3E0B1E08C
:100FE0000D9111274BE050E00E94B51CA4EDB1E03B
:100FF000A00FB11F0E94871DACE9B2E00D931D93B5
:101000002D933D930C942108E8EEF1E40E94111D0C
:101010000E94D71D11F00C942108A3E0B1E00D91BE
:1010200011274BE050E00E94B51CA4EDB1E0A00FE9
:10103000B11F0E94871DA4EAB2E00D931D932D936A
:101040003D93A3E0B1E08C918F5F8C9310F40C94EE
:1010500039070895ABE3B1E088278C930E94B91B50
:10106000A1E0B1E08C93009101010F3211F00C94DA
:101070003B080C944708A1E0B1E08C91ABE3B1E0F0
:101080000E94B21B8D9388278C930C942E08ABE39F
:10109000B1E00E94871D40E8040FA881B9810C933C
:1010A0000895A89500915502083C11F00C94AF08E2
:1010B000D201EAEEF1E40E94111D0E94E21C84E0DC
:1010C0000E94751CACEFB2E08D919C91D2018D9382
:1010D0009D9388278D938C9384E00E94751C0E94B9
:1010E000D60A249688E00E94711CD201EEEEF1E44B
:1010F0000E94111D0E94E21C84E00E94751CAEEF4C
:10110000B2E08D919C91D2018D939D9388278D9310
:101110008C9384E00E94751C0E94D60A249688E075
:101120000E94711CD201E2EFF1E40E94111D0E94A5
:10113000E21C84E00E94751CA0E0B3E08D919C91BC
:10114000D2018D939D9388278D938C9384E00E9488
:10115000751C0E94D60A249688E00E94711CD20158
:10116000E6EFF1E40E94111D0E94E21C84E00E945F
:10117000751CA2E0B3E00D911D912D913C91D2011F
:101180000D931D932D933C9384E00E94751C0E9447
:10119000D60A249688E00E94711C00915502083CF2
:1011A00011F00C942A09D201EAEFF1E40E94111D1A
:1011B0000E94E21C84E00E94751CA6E0B3E08D91C1
:1011C0009C91D2018D939D9388278D938C9384E07D
:1011D0000E94751C0E94D60A249688E00E94711C09
:1011E000D201EEEFF1E40E94111D0E94E21C84E0A6
:1011F0000E94751CA8E0B3E08D919C91D2018D9363
:101200009D9388278D938C9384E00E94751C0E9487
:10121000D60A249688E00E94711CD201E2E0F2E432
:101220000E94111D0E94E21C84E00E94751CAAE02D
:10123000B3E08D919C91D2018D939D9388278D93DE
:101240008C9384E00E94751C0E94D60A249688E044
:101250000E94711CD201E6E0F2E40E94111D0E947E
:10126000E21C84E00E94751CACE0B3E00D911D917E
:101270002D913C91D2010D931D932D933C9384E0CD
:101280000E94751C0E94D60A249688E00E94711C58
:10129000D201EAE0F2E40E94111D0E94E21C84E007
:1012A0000E94751CACE6B2E00D911D912D913C9110
:1012B000D2010D931D932D933C9384E00E94751CE5
:1012C0000E94D60A249688E00E94711CD201EEE0AA
:1012D000F2E40E94111D0E94E21C84E00E94751C31
:1012E000A0E7B2E00D911D912D913C91D2010D939B
:1012F0001D932D933C9384E00E94751C0E94D60A96
:10130000249688E00E94711CD201E2E1F2E40E947E
:10131000111D0E94E21C84E00E94751CA4E7B2E04B
:101320000D911D912D913C91D2010D931D932D9303
:101330003C9384E00E94751C0E94D60A249688E0A3
:101340000E94711CD201E6E1F2E40E94111D0E948C
:10135000E21C84E00E94751CA8E7B2E00D911D918B
:101360002D913C91D2010D931D932D933C9384E0DC
:101370000E94751C0E94D60A249688E00E94711C67
:10138000D201EAE1F2E40E94111D0E94E21C84E015
:101390000E94751CACE7B2E00D911D912D913C911E
:1013A000D2010D931D932D933C9384E00E94751CF4
:1013B0000E94D60A249688E00E94711CD201EEE1B8
:1013C000F2E40E94111D0E94E21C84E00E94751C40
:1013D000A4E8B2E00D911D912D913C91D2010D93A5
:1013E0001D932D933C9384E00E94751C0E94D60AA5
:1013F000249688E00E94711CD201E2E2F2E40E948D
:10140000111D0E94E21C84E00E94751CACE8B2E051
:101410000D911D912D913C91D2010D931D932D9312
:101420003C9384E00E94751C0E94D60A249688E0B2
:101430000E94711CD201E6E2F2E40E94111D0E949A
:10144000E21C84E00E94751CA4E9B2E00D911D919C
:101450002D913C91D2010D931D932D933C9384E0EB
:101460000E94751C0E94D60A249688E00E94711C76
:10147000D201EAE2F2E40E94111D0E94E21C84E023
:101480000E94751CACE9B2E00D911D912D913C912B
:10149000D2010D931D932D933C9384E00E94751C03
:1014A0000E94D60A249688E00E94711CD201EEE2C6
:1014B000F2E40E94111D0E94E21C84E00E94751C4F
:1014C000A4EAB2E00D911D912D913C91D2010D93B2
:1014D0001D932D933C9384E00E94751C0E94D60AB4
:1014E000249688E00E94711C00915402083C11F07F
:1014F0000C94820AE2E3F2E40E94111D0E94C51BD3
:101500000E94CC1BEF93FF93E4E3F0E00E94351CB4
:10151000FF91EF9100915502043611F00C94A20A4C
:10152000E6E3F2E40E94111D0E94C51B0E94CC1B41
:10153000EF93FF93E4E3F0E00E94351CFF91EF91FD
:101540000C94B80A00915502083C11F00C94B80AAA
:10155000EAE3F2E40E94111D0E94C51B0E94CC1B0D
:10156000EF93FF93E4E3F0E00E94351CFF91EF91CD
:10157000D201EEE3F2E40E94111D0E94E21C84E01D
:101580000E94751CA1E4B2E08D919C91D2018D93D3
:101590009D9388278D938C9384E00E94751C0E94F4
:1015A000D60A249688E00E94711C089580E10E946A
:1015B000751CA881B981EA81FB810E94371DAC812D
:1015C000BD810E94BF1BA881B9810E94BF1B0E94E0
:1015D000CC1BEF93FF93E4E3F0E00E94351CFF91F6
:1015E000EF9180E1481A80E0580A22960895A89564
:1015F00081E080930301009103010B3018F011F09A
:101600000C94370B80E090E0A3E0B1E0AD90BB24F8
:10161000A4E5B2E0AA0CBB1CAA0DBB1D8D939C9344
:10162000A3E0B1E0AD90BB24A4E5B2E0AA0CBB1CE2
:10163000AA0DBB1DBA93AA9380910301D2018C938A
:1016400081E00E94751C84E1D2018C9381E00E94AC
:10165000751C0E94FA0C269682E00E94711CA3E081
:10166000B1E08C918F5F8C9310F40C94FB0AA6E58B
:10167000B2E08D919C91ACEFB2E08D939C93A8E584
:10168000B2E08D919C91AEEFB2E08D939C93AAE570
:10169000B2E08D919C91A0E0B3E08D939C93ACE57A
:1016A000B2E08D919C91A6E0B3E08D939C93AEE562
:1016B000B2E08D919C91A8E0B3E08D939C93A0E65D
:1016C000B2E08D919C91AAE0B3E08D939C93A2E649
:1016D000B2E08D919C91ACE6B2E08D939D9388270A
:1016E0008D938C93A4E6B2E08D919C91A0E7B2E03B
:1016F0008D939D9388278D938C93A6E6B2E08D9170
:101700009C91A4E7B2E08D939D9388278D938C9351
:10171000A8E6B2E08D919C91A8E7B2E08D939D93ED
:1017200088278D938C93AAE6B2E08D919C91A1E4D9
:10173000B2E08D939C93E0E1F3E0D190E080FF2450
:1017400000270E94BC1E0E945E1E2F933F934F9362
:101750005F93ECEFF2E0D190E080FF2400270E943D
:10176000BC1E5F914F913F912F910E94A41FEDE00D
:10177000F0E0A7E3B2E00E94B91DE2E1F3E00E94CD
:101780004F1E0E94D41E0E945E1EE7E3F2E00E94FC
:101790004F1E0E940C1FEDE0F0E0A7E3B2E00E94B4
:1017A000B91DE7E3F2E00E946820EDE0F0E00E945E
:1017B000641EABE3B2E0EDE0FF270E94B91D00918B
:1017C0003B0242E00E94C71DA3E0B1E08C93009170
:1017D0000301003011F00C94050CE4EAF1E40E94DE
:1017E000111D0E940120EEEFF2E0D190E080FF2475
:1017F00000270E94BC1E0E94A41FEDE0F0E0A7E3BA
:10180000B2E00E94B91D0C941B0CE4EAF1E40E94C2
:10181000111D0E940120E0E0F3E0D190E080FF2460
:1018200000270E94BC1E0E94A41FEDE0F0E0A7E389
:10183000B2E00E94B91DABE3B2E00D911D912D9174
:101840003C91A6E1B3E04D915C91662777270E9419
:10185000BF1CABE3B2E00D931D932D933D93EBE3DF
:10186000F2E00E944F1E0E94D41E0E945E1EE7E31B
:10187000F2E00E944F1E0E94B31FEDE0F0E00E94D4
:10188000641EA2E0B3E0EDE0FF270E94B91DE0E294
:10189000F3E0D190E080FF2400270E94BC1E0E944C
:1018A0005E1E2F933F934F935F93E6E0F3E0D1905A
:1018B000E080FF2400270E94BC1E5F914F913F9162
:1018C0002F910E94A41FEDE0F0E0A7E3B2E00E9498
:1018D000B91DE2E2F3E00E944F1E0E94D41E0E9456
:1018E0005E1EE7E3F2E00E944F1E0E940C1FEDE037
:1018F000F0E0A7E3B2E00E94B91DE7E3F2E00E9446
:101900006820EDE0F0E00E94641EABE3B2E0EDE0A1
:10191000FF270E94B91D00913B0242E00E94C71DB3
:10192000A3E0B1E08C9300910301003011F00C941E
:10193000B10CE4EAF1E40E94111D0E940120E8E0EC
:10194000F3E0D190E080FF2400270E94BC1E0E949B
:10195000A41FEDE0F0E0A7E3B2E00E94B91D0C94F3
:10196000C70CE4EAF1E40E94111D0E940120EAE0A4
:10197000F3E0D190E080FF2400270E94BC1E0E946B
:10198000A41FEDE0F0E0A7E3B2E00E94B91DABE3D5
:10199000B2E00D911D912D913C91A6E2B3E04D91E5
:1019A0005C91662777270E94BF1CABE3B2E00D93E2
:1019B0001D932D933D93EBE3F2E00E944F1E0E9496
:1019C000D41E0E945E1EE7E3F2E00E944F1E0E94BA
:1019D000B31FEDE0F0E00E94641EACE0B3E0EDE088
:1019E000FF270E94B91D80E098E0A1E4B2E08D934A
:1019F0009C93089500E110E0AA81BB814D91552789
:101A0000041B150BABE4B1E00D931C93ABE4B1E008
:101A10008C918BBB81E080930401A881B9814C91AA
:101A200000910401041718F011F00C94790DDC9862
:101A3000EF93E3E0EA95F1F7EF9198990C941D0D7F
:101A4000DC9AEF93E3E0EA95F1F7EF9180B1A4E03F
:101A5000B1E0AD90BB24ABE4B1E0AA0CBB1CAA0D75
:101A6000BB1D8D9388278C9380916300ABE4B1E01C
:101A70008D9388278C93ABE4B1E00D911C914FE0DE
:101A800050E004231523ABE4B1E00D931C93ABE4C9
:101A9000B1E00D911C9140E051E00E94B51CABE417
:101AA000B1E00D931C93A4E0B1E0AD90BB24ABE496
:101AB000B1E0AA0CBB1CAA0DBB1D0D911C91ABE49F
:101AC000B1E04D915C91040F151FA4E0B1E0AD9021
:101AD000BB24ABE4B1E0AA0CBB1CAA0DBB1D0D934B
:101AE0001C93A4E0B1E08C918F5F8C9310F40C9464
:101AF0000D0DA881B981EC91FF27ADE4B1E00E9402
:101B0000871C00E010E020E030E0A5E7B1E00D9395
:101B10001D932D933C9380E080930501A881B981AA
:101B20000C9144E00E94C71DA1E0B1E00C93A88194
:101B3000B9810C9140910101041BA2E0B1E00C932A
:101B4000A1E0B1E08C918F5F8C9380910101809333
:101B500004014091020100910401041718F011F0F2
:101B60000C94DB0DA5E7B1E00D911D912D913C91F9
:101B7000A4E0B1E0AD90BB24ABE4B1E0AA0CBB1C87
:101B8000AA0DBB1D4D915C91662777270E94171DFA
:101B9000A5E7B1E00D931D932D933D93A5E0B1E032
:101BA0008C918F5F8C93A4E0B1E08C918F5F8C93CC
:101BB00010F40C94A90DA5E7B1E00D911C91A5E0DE
:101BC000B1E04D9155270E94981BAC81BD814D938A
:101BD0005C930895A895A2E0B3E00D911D912D911D
:101BE0003C914AE050E060E070E00E94D61BA0E328
:101BF000B3E04D935D936D937D93A0E3B3E00D91BE
:101C00001D912D913C91A8E1B3E04D915D916D91B5
:101C10007C910E94BF1CA0E3B3E00D931D932D9314
:101C20003D93A0E3B3E00D911D912D913C9140E1D6
:101C300057E260E070E00E94D61BA0E3B3E04D9352
:101C40005D936D937D93A0E3B3E00D911D912D9174
:101C50003C91ACE1B3E04D915D916D917C910E941E
:101C6000171DA0E3B3E00D931D932D933D93E0E387
:101C7000F3E00E944F1E0E94D41EA4E6B3E00E942F
:101C8000591EE4E6F3E00E94A720EDE0F0E0A4E6B0
:101C9000B3E00E94B91DACE0B3E00D911D912D9110
:101CA0003C9144E650E060E070E00E94D61BA4E462
:101CB000B3E04D935D936D937D93A4E4B3E00D91F8
:101CC0001D912D913C91A8E2B3E04D915D916D91F4
:101CD0007C910E94BF1CA4E4B3E00D931D932D934F
:101CE0003D93A4E4B3E00D911D912D913C9148EEFC
:101CF00053E060E070E00E94D61BA4E4B3E04D9393
:101D00005D936D937D93A4E4B3E00D911D912D91AE
:101D10003C91ACE2B3E04D915D916D917C910E945C
:101D2000171DA4E4B3E00D931D932D933D93E4E4BC
:101D3000F3E00E944F1E0E94D41EA8E6B3E00E946A
:101D4000591EE8E6F3E00E94A720EDE0F0E0A8E6E7
:101D5000B3E00E94B91DE4E6F3E00E94AD20EDE09F
:101D6000F0E0A8E5B3E00E94B91DE8E6F3E00E94C8
:101D7000AD20EDE0F0E0ACE5B3E00E94B91DE8E68F
:101D8000F3E00E942A20EDE0F0E0A0E6B3E00E943C
:101D9000B91DE8E5F3E00E94541EE4E7F3E0D080CB
:101DA000EE24FF2400270E94D41E0E94651FEDE050
:101DB000F0E0ACE6B3E00E94B91DE8EAF1E40E946D
:101DC000111D0E940120ECE6F3E00E944F1E0E94CC
:101DD0000C1FEDE0F0E0ACE6B3E00E94B91DE0E6D8
:101DE000F3E00E94541EECE6F3E00E944F1E0E94B6
:101DF000651FEDE0F0E0A0E7B3E00E94B91DECE55F
:101E0000F3E00E94541EECE6F3E00E944F1E0E9495
:101E1000651FEDE0F0E0ACE6B3E00E94B91D40E0E4
:101E200050E060E070E0ACE7B2E00D911D912D91C3
:101E30003C910E94211D11F40C94A010A2E3B0E08B
:101E40000C9101FB81E00EF480E08F93A2E3B0E0FF
:101E50000C9100FB81E00EF480E09F9189238823A0
:101E600011F40C94410FA8E3B3E00D911D912D9155
:101E70003C91ABE3B2E00D931D932D933C930C94F6
:101E80004D0FA4E3B3E00D911D912D913C91ABE377
:101E9000B2E00D931D932D933C93A2E0B3E04D91DE
:101EA0005D916D917C91ACE7B2E00D911D912D910A
:101EB0003C910E94211D1CF011F00C94610F0C94B8
:101EC000F40FACE7B2E00D911D912D913C91A2E091
:101ED000B3E04D915D916D917C910E941C1DAFE22C
:101EE000B2E00D931D932D933D93ABE3B2E04D9182
:101EF0005D916D917C91AFE2B2E00D911D912D91BC
:101F00003C910E94211D1CF011F00C94890F0C943F
:101F1000ED0F9198909AACE3B3E04D915D916D9186
:101F20007C91AFE2B2E00D911D912D913C910E9408
:101F3000211D0CF402C00C94A10F80917B038093AF
:101F40007A03AFE2B2E04D915D916D917C91ACE38B
:101F5000B3E00D911D912D913C910E94211D81E0D6
:101F600014F009F080E08F93A0E4B3E04D915D910F
:101F70006D917C91AFE2B2E00D911D912D913C915C
:101F80000E94211D80E00CF481E09F918923882329
:101F900011F40C94CF0F80917C0380937A03AFE20D
:101FA000B2E04D915D916D917C91A0E4B3E00D9113
:101FB0001D912D913C910E94211D0CF402C00C94A6
:101FC000E50F80917D0380937A03AAE7B3E00C913B
:101FD00042E0049F0C920C94F20F9198909880E04C
:101FE00080937A030C949E10A2E0B3E04D915D9132
:101FF0006D917C91ACE7B2E00D911D912D913C91DA
:102000000E94211D0CF402C00C949910A2E0B3E0D0
:102010000D911D912D913C91ACE7B2E04D915D91F8
:102020006D917C910E941C1DAFE2B2E00D931D9357
:102030002D933D93ABE3B2E04D915D916D917C9119
:10204000AFE2B2E00D911D912D913C910E94211DB6
:102050001CF011F00C942E100C9492109098919A00
:10206000ACE3B3E04D915D916D917C91AFE2B2E054
:102070000D911D912D913C910E94211D0CF402C0E7
:102080000C94461080917B0380937A03AFE2B2E018
:102090004D915D916D917C91ACE3B3E00D911D91FB
:1020A0002D913C910E94211D81E014F009F080E007
:1020B0008F93A0E4B3E04D915D916D917C91AFE27F
:1020C000B2E00D911D912D913C910E94211D80E067
:1020D0000CF481E09F918923882311F40C947410EF
:1020E00080917C0380937A03AFE2B2E04D915D91E1
:1020F0006D917C91A0E4B3E00D911D912D913C91E7
:102100000E94211D0CF402C00C948A1080917D0362
:1021100080937A03AAE7B3E00C9142E0049F0C920B
:102120000C9497109098919880E080937A030C9487
:102130009E109098919880E080937A030C94A5105B
:102140009098919880E080937A0380917A03D201ED
:102150008C9381E00E94751C80E0D2018C9381E019
:102160000E94751C0E942316249682E00E94711C16
:1021700040E050E060E070E0A4E8B2E00D911D9115
:102180002D913C910E94211D11F40C941E11929BE3
:102190000C94D810ACE4B3E00D911D912D913C91BD
:1021A000ABE3B2E00D931D932D933C930C94E4109C
:1021B000A8E4B3E00D911D912D913C91ABE3B2E009
:1021C0000D931D932D933C9300E010E020E030E050
:1021D000AFE2B2E00D931D932D933C93AFE2B2E0DA
:1021E000BA93AA93A4E8B2E0BA93AA93ACE0B3E09E
:1021F000BA93AA93ABE3B2E0BA93AA93A0E5B3E093
:10220000BA93AA93A4E5B3E0BA93AA93AFE7B3E075
:10221000BA93AA93A0E8B3E0BA93AA93A1E8B3E073
:10222000BA93AA930E94CC14629600E040912F02C8
:10223000041BAEE7B3E00C930C94211180E880936B
:102240007E0340E050E060E070E0ACE8B2E00D9169
:102250001D912D913C910E94211D11F40C94D911D6
:10226000939B0C944111A0EBB2E00D911D912D9127
:102270003C91ABE3B2E00D931D932D933C930C94F2
:102280004D11ACEAB2E00D911D912D913C91ABE363
:10229000B2E00D931D932D933C9380E08093EC026C
:1022A000ACEEB2E0BA93AA93ACE8B2E0BA93AA93C8
:1022B000ACE6B2E0BA93AA93ABE3B2E0BA93AA93C6
:1022C000A4EBB2E0BA93AA93A8EBB2E0BA93AA93B4
:1022D000ADEEB2E0BA93AA93AEEEB2E0BA93AA938F
:1022E000AFEEB2E0BA93AA930E94CC14629600912A
:1022F000EC02003811F40C94D71100E810E020E053
:1023000030E0ACEEB2E04C915527662777270E946B
:102310001C1DABE2B2E00D931D932D933D93ABE2F8
:10232000B2E00D911D912D913C910E942A1CABE2CF
:10233000B2E00D931D932D933D93AFEEB2E04C911F
:10234000552766277727ABE2B2E00D911D912D91BD
:102350003C910E94211D0CF402C00C94D711ECE6B4
:10236000F3E00E94541EEBE2F2E00E944F1E0E9436
:10237000D41E0E94651FEDE0F0E0A7E3B2E00E94EA
:10238000B91DE7E3F2E00E94BC20EDE0F0E00E941E
:10239000641EABE2B2E0EDE0FF270E94B91D0091A0
:1023A000EC0240912B02041BACEEB2E00C930C94B7
:1023B000DC1180E88093EC0240E050E060E070E0E7
:1023C000A4E9B2E00D911D912D913C910E94211D37
:1023D00011F40C949412949B0C94FC11A0ECB2E0B8
:1023E0000D911D912D913C91ABE3B2E00D931D93A6
:1023F0002D933C930C940812ACEBB2E00D911D911F
:102400002D913C91ABE3B2E00D931D932D933C9342
:1024100080E08093F002A0EFB2E0BA93AA93A4E91F
:10242000B2E0BA93AA93A0E7B2E0BA93AA93ABE35F
:10243000B2E0BA93AA93A4ECB2E0BA93AA93A8EC40
:10244000B2E0BA93AA93A1EFB2E0BA93AA93A2EF33
:10245000B2E0BA93AA93A3EFB2E0BA93AA930E9410
:10246000CC1462960091F002003811F40C94921290
:1024700000E810E020E030E0A0EFB2E04C915527FA
:10248000662777270E941C1DABE2B2E00D931D93D7
:102490002D933D93ABE2B2E00D911D912D913C91B6
:1024A0000E942A1CABE2B2E00D931D932D933D9345
:1024B000A3EFB2E04C91552766277727ABE2B2E055
:1024C0000D911D912D913C910E94211D0CF402C093
:1024D0000C949212ECE6F3E00E94541EEBE2F2E060
:1024E0000E944F1E0E94D41E0E94651FEDE0F0E086
:1024F000A7E3B2E00E94B91DE7E3F2E00E94BC202E
:10250000EDE0F0E00E94641EABE2B2E0EDE0FF27F8
:102510000E94B91D0091F00240912B02040FA0EF20
:10252000B2E00C930C94971280E88093F00240E0A4
:1025300050E060E070E0ACE9B2E00D911D912D91AA
:102540003C910E94211D11F40C944F13959B0C9407
:10255000B712A0EDB2E00D911D912D913C91ABE32E
:10256000B2E00D931D932D933C930C94C312ACECED
:10257000B2E00D911D912D913C91ABE3B2E00D9332
:102580001D932D933C9380E08093F402A4EFB2E07E
:10259000BA93AA93ACE9B2E0BA93AA93A4E7B2E0E3
:1025A000BA93AA93ABE3B2E0BA93AA93A4EDB2E0D4
:1025B000BA93AA93A8EDB2E0BA93AA93A5EFB2E0BA
:1025C000BA93AA93A6EFB2E0BA93AA93A7EFB2E0A8
:1025D000BA93AA930E94CC1462960091F402003838
:1025E00011F40C944D1300E810E020E030E0A4EF6B
:1025F000B2E04C915527662777270E941C1DABE25D
:10260000B2E00D931D932D933D93ABE2B2E00D919B
:102610001D912D913C910E942A1CABE2B2E00D93DA
:102620001D932D933D93A7EFB2E04C91552766275C
:102630007727ABE2B2E00D911D912D913C910E9464
:10264000211D0CF402C00C944D13E0E7F3E00E944E
:10265000541EEBE2F2E00E944F1E0E94D41E0E9424
:10266000651FEDE0F0E0A7E3B2E00E94B91DE7E3EB
:10267000F2E00E94BC20EDE0F0E00E94641EABE2BC
:10268000B2E0EDE0FF270E94B91D0091F4024091F5
:102690002B02040FA4EFB2E00C930C94521380E8C9
:1026A0008093F40240E050E060E070E0A4EAB2E021
:1026B0000D911D912D913C910E94211D11F40C94BE
:1026C0000A14969B0C947213A0EEB2E00D911D912A
:1026D0002D913C91ABE3B2E00D931D932D933C9370
:1026E0000C947E13ACEDB2E00D911D912D913C91B7
:1026F000ABE3B2E00D931D932D933C9380E0809368
:10270000F802A8EFB2E0BA93AA93A4EAB2E0BA93AF
:10271000AA93A8E7B2E0BA93AA93ABE3B2E0BA9364
:10272000AA93A4EEB2E0BA93AA93A8EEB2E0BA9349
:10273000AA93A9EFB2E0BA93AA93AAEFB2E0BA9330
:10274000AA93ABEFB2E0BA93AA930E94CC1462961C
:102750000091F802003811F40C94081400E810E01D
:1027600020E030E0A8EFB2E04C91552766277727AC
:102770000E941C1DABE2B2E00D931D932D933D937F
:10278000ABE2B2E00D911D912D913C910E942A1C6B
:10279000ABE2B2E00D931D932D933D93ABEFB2E00E
:1027A0004C91552766277727ABE2B2E00D911D913A
:1027B0002D913C910E94211D0CF402C00C94081430
:1027C000E0E7F3E00E94541EEBE2F2E00E944F1EAD
:1027D0000E94D41E0E94651FEDE0F0E0A7E3B2E086
:1027E0000E94B91DE7E3F2E00E94BC20EDE0F0E0BA
:1027F0000E94641EABE2B2E0EDE0FF270E94B91D2B
:102800000091F80240912B02041BA8EFB2E00C9358
:102810000C940D1480E88093F80280917E03D2011D
:102820008C9381E00E94751C81E0D2018C9381E041
:102830000E94751C0E942316249682E00E94711C3F
:102840008091EC02D2018C9381E00E94751C82E0A1
:10285000D2018C9381E00E94751C0E94231624965D
:1028600082E00E94711C8091F002D2018C9381E081
:102870000E94751C83E0D2018C9381E00E94751C3C
:102880000E942316249682E00E94711C8091F4021B
:10289000D2018C9381E00E94751C84E0D2018C935C
:1028A00081E00E94751C0E942316249682E00E94FB
:1028B000711C8091F802D2018C9381E00E94751CFA
:1028C00085E0D2018C9381E00E94751C0E94231642
:1028D000249682E00E94711C40E050E060E070E0CD
:1028E000A4E8B2E00D911D912D913C910E94211D13
:1028F00011F00C947E14929A0C947F14929840E0FC
:1029000050E060E070E0ACE8B2E00D911D912D91D7
:102910003C910E94211D11F00C949114939A0C94F7
:102920009214939840E050E060E070E0A4E9B2E0D7
:102930000D911D912D913C910E94211D11F00C943F
:10294000A414949A0C94A514949840E050E060E08C
:1029500070E0ACE9B2E00D911D912D913C910E9487
:10296000211D11F00C94B714959A0C94B8149598F5
:1029700040E050E060E070E0A4EAB2E00D911D910B
:102980002D913C910E94211D11F00C94CA14969A2D
:102990000C94CB1496980895AC85BD854D915D91AE
:1029A0006D917C91AE85BF850D911D912D913C91CE
:1029B0000E94211D1CF011F00C94E0140C9476156B
:1029C000AE85BF850D911D912D913C91AC85BD8546
:1029D0004D915D916D917C910E941C1DAFE2B2E022
:1029E0000D931D932D933D93AFE2B2E04D915D9118
:1029F0006D917C91AA85BB850D911D912D913C9186
:102A00000E94211D0CF402C00C947015A885B98594
:102A10004D915D916D917C91AFE2B2E00D911D9170
:102A20002D913C910E94211D0CF402C00C941E15A6
:102A3000AC81BD818C91A889B9898C93AFE2B2E059
:102A40004D915D916D917C91A885B9850D911D91F8
:102A50002D913C910E94211D81E014F009F080E04D
:102A60008F93AE81BF814D915D916D917C91AFE26D
:102A7000B2E00D911D912D913C910E94211D80E0AD
:102A80000CF481E09F918923882311F40C944E1556
:102A9000AA81BB818C91A889B9898C93AFE2B2E0FD
:102AA0004D915D916D917C91AE81BF810D911D9194
:102AB0002D913C910E94211D0CF402C00C946615CE
:102AC000A881B9818C91A889B9898C9300E8A889DB
:102AD000B9894C91041BA889B9890C930C9474157D
:102AE00080E8A889B9898C930C942216AC85BD85A1
:102AF0004D915D916D917C91AE85BF850D911D913C
:102B00002D913C910E94211D0CF402C00C941E16C4
:102B1000AC85BD850D911D912D913C91AE85BF85F4
:102B20004D915D916D917C910E941C1DAFE2B2E0D0
:102B30000D931D932D933D93AFE2B2E04D915D91C6
:102B40006D917C91AA85BB850D911D912D913C9134
:102B50000E94211D0CF402C00C941816A885B9859A
:102B60004D915D916D917C91AFE2B2E00D911D911F
:102B70002D913C910E94211D0CF402C00C94C615AD
:102B8000AC81BD818C91A889B9898C93AFE2B2E008
:102B90004D915D916D917C91A885B9850D911D91A7
:102BA0002D913C910E94211D81E014F009F080E0FC
:102BB0008F93AE81BF814D915D916D917C91AFE21C
:102BC000B2E00D911D912D913C910E94211D80E05C
:102BD0000CF481E09F918923882311F40C94F6155D
:102BE000AA81BB818C91A889B9898C93AFE2B2E0AC
:102BF0004D915D916D917C91AE81BF810D911D9143
:102C00002D913C910E94211D0CF402C00C940E16D3
:102C1000A881B9818C91A889B9898C9300E8A88989
:102C2000B9894C91040FA889B9890C930C941C168E
:102C300080E8A889B9898C930C94221680E8A88929
:102C4000B9898C930895AA81BB818C91ABE4B1E0E2
:102C50008D9388278C93A881B9810C9140E1049FC2
:102C6000A3E0B1E00C929CE0ABE4B1E00E94E81C70
:102C700094E0AA81BB810E94F31CAA81BB810C91C4
:102C800040910301040FAA81BB810C93ABE4B1E036
:102C90000D911C91AA81BB814D915527040F151FE1
:102CA000ABE4B1E00D931C93C49892E0ABE4B1E0C7
:102CB0000E94381CC49AC698C69A089577B77E7F3A
:102CC00077BF77B77F7B77BF77B77B7F77BF9FB7BC
:102CD000F89481B5886181BD877E81BD9FBF8BE4FB
:102CE00080937A0380917A03D2018C9381E00E94D1
:102CF000751C80E0D2018C9381E00E94751C0E94BB
:102D00002316249682E00E94711C7FE772BB909884
:102D1000919A0E941B18AEEFB2E00D911C91003009
:102D200054E0150711F00C94A716ACEFB2E08D91AA
:102D30009C91A0E1B3E08D939C93A0E0B3E08D91D2
:102D40009C91A6E7B3E08D939C930C94A9160C94E8
:102D500089160E941B18A6E7B3E04D915C91AEEF77
:102D6000B2E00D911C910417150711F00C94DC16BC
:102D7000ACEFB2E00D911C9122273327A0E1B3E024
:102D80004D915C91662777270E941C1DA2E1B3E05C
:102D90000D931D932D933D93A2E1B3E00D911D91F1
:102DA0002D913C910E942A1CA2E1B3E00D931D934A
:102DB0002D933D930C94DE160C94A91680E080931D
:102DC0007A0380917A03D2018C9381E00E94751C72
:102DD00080E0D2018C9381E00E94751C0E94231632
:102DE000249682E00E94711C90989198A6E7B3E027
:102DF0000D911C9100501440A6E1B3E00D931C937B
:102E0000E2E4F2E40E94111D0E94C51BA0E2BFE0B3
:102E1000E0E1F3E00E94341D0E94BD1B0E94CC1B28
:102E2000EF93FF93E4E3F0E00E94351CFF91EF91F4
:102E3000E6E4F2E40E94111D0E94C51BA0E2BFE07F
:102E4000E2E1F3E00E94371D0E94BD1B0E94CC1BF3
:102E5000EF93FF93E4E3F0E00E94351CFF91EF91C4
:102E6000EAE4F2E40E94111D0E94C51BA0E2BFE04B
:102E7000E6E1F3E00E94341D0E94BD1B0E94CC1BC2
:102E8000EF93FF93E4E3F0E00E94351CFF91EF9194
:102E900070914C02706870934C02A8E0B1E08827F2
:102EA0008C930E94B91BA1E0B1E08C9300910101C9
:102EB0000F3211F00C945E170C946A17A1E0B1E088
:102EC0008C91A8E0B1E00E94B21B8D9388278C936F
:102ED0000C945117A8E0B1E00E94871DABE4B1E06B
:102EE0000D931C93A0E1B3E04D915C91ABE4B1E094
:102EF0000D911C910417150711F40C94841770910F
:102F00004C027F7770934C02A8E0B1E088278C9345
:102F10000E94B91BA1E0B1E08C93009101010F3236
:102F200011F00C9495170C94A117A1E0B1E08C91CD
:102F3000A8E0B1E00E94B21B8D9388278C930C947B
:102F40008817A8E0B1E00E94871DAFE3B2E00D93BF
:102F50001C93A2E1B3E04D915D916D917C91AFE343
:102F6000B2E00D911D9117FB1EF42FEF3FEF02C051
:102F7000222733270E94211D11F40C94C41770914D
:102F80004C027F7770934C02A8E0B1E088278C93C5
:102F90000E94B91BA1E0B1E08C93009101010F32B6
:102FA00011F00C94D5170C94E117A1E0B1E08C91CD
:102FB000A8E0B1E00E94B21B8D9388278C930C94FB
:102FC000C817A8E0B1E00E94871DABE4B1E00D9303
:102FD0001C93A6E1B3E04D915C91ABE4B1E00D919F
:102FE0001C910417150711F40C94FB1770914C02F7
:102FF0007F7770934C02ACE4B2E08C9187FB16F0C3
:103000000C9404180C9406180C940017EEE4F2E4E7
:103010000E94111D0E94C51B0E94CC1B77B77160D6
:1030200077BF77B7706477BF77B7746077BF81B5C4
:10303000886081BD089581E08093030100910301C0
:10304000033018F011F00C945A1880E090E0A3E0DF
:10305000B1E0AD90BB24A4E5B2E0AA0CBB1CAA0D64
:10306000BB1D8D939C93A3E0B1E0AD90BB24A4E580
:10307000B2E0AA0CBB1CAA0DBB1DBA93AA93809107
:103080000301D2018C9381E00E94751C82E0D20181
:103090008C9381E00E94751C0E94FA0C269682E0B7
:1030A0000E94711CA3E0B1E08C918F5F8C9310F4AF
:1030B0000C941E18A6E5B2E08D919C91ACEFB2E0A5
:1030C0008D939C93A8E5B2E08D919C91AEEFB2E018
:1030D0008D939C93AAE5B2E08D919C91A0E0B3E022
:1030E0008D939C93089577B77E7F77BF77B77F7B6B
:1030F00077BF77B77B7F77BF9FB7F89481B588613B
:1031000081BD877E81BD9FBF80EA80937E038091D1
:103110007E03D2018C9381E00E94751C81E0D20174
:103120008C9381E00E94751C0E942316249682E0F5
:103130000E94711C7FE772BB9098919892980E94B0
:10314000301AA8E0B3E00D911C91003054E015074F
:1031500011F00C94BD18A6E0B3E08D919C91A0E213
:10316000B3E08D939C93AAE0B3E08D919C91A8E786
:10317000B3E08D939C930C94BF180C949F180E94FD
:10318000301AA8E7B3E04D915C91A8E0B3E00D914F
:103190001C910417150711F00C94F218A6E0B3E087
:1031A0000D911C9122273327A0E2B3E04D915C9151
:1031B000662777270E941C1DA2E2B3E00D931D93A2
:1031C0002D933D93A2E2B3E00D911D912D913C9181
:1031D0000E942A1CA2E2B3E00D931D932D933D9310
:1031E0000C94F4180C94BF1880E880937E038091AF
:1031F0007E03D2018C9381E00E94751C81E0D20194
:103200008C9381E00E94751C0E942316249682E014
:103210000E94711C929AA8E7B3E00D911C91005096
:103220001440A6E2B3E00D931C93E2E5F2E40E94A1
:10323000111D0E94C51BA0E2BFE0E0E2F3E00E9486
:10324000341D0E94BD1B0E94CC1BEF93FF93E4E34F
:10325000F0E00E94351CFF91EF91E6E5F2E40E9458
:10326000111D0E94C51BA0E2BFE0E2E2F3E00E9454
:10327000371D0E94BD1B0E94CC1BEF93FF93E4E31C
:10328000F0E00E94351CFF91EF91EAE5F2E40E9424
:10329000111D0E94C51BA0E2BFE0E6E2F3E00E9420
:1032A000341D0E94BD1B0E94CC1BEF93FF93E4E3EF
:1032B000F0E00E94351CFF91EF9170914C02706814
:1032C00070934C02A8E0B1E088278C930E94B91B50
:1032D000A1E0B1E08C93009101010F3211F00C9448
:1032E00073190C947F19A1E0B1E08C91A8E0B1E0D2
:1032F0000E94B21B8D9388278C930C946619A8E0CA
:10330000B1E00E94871DABE4B1E00D931C93A0E2F5
:10331000B3E04D915C91ABE4B1E00D911C910417C9
:10332000150711F40C94991970914C027F777093E2
:103330004C02A8E0B1E088278C930E94B91BA1E061
:10334000B1E08C93009101010F3211F00C94AA1995
:103350000C94B619A1E0B1E08C91A8E0B1E00E9414
:10336000B21B8D9388278C930C949D19A8E0B1E033
:103370000E94871DAFE3B2E00D931C93A2E2B3E07D
:103380004D915D916D917C91AFE3B2E00D911D91F6
:1033900017FB1EF42FEF3FEF02C0222733270E94B6
:1033A000211D11F40C94D91970914C027F77709300
:1033B0004C02A8E0B1E088278C930E94B91BA1E0E1
:1033C000B1E08C93009101010F3211F00C94EA19D5
:1033D0000C94F619A1E0B1E08C91A8E0B1E00E9454
:1033E000B21B8D9388278C930C94DD19A8E0B1E073
:1033F0000E94871DABE4B1E00D931C93A6E2B3E0FD
:103400004D915C91ABE4B1E00D911C91041715074F
:1034100011F40C94101A70914C027F7770934C0247
:10342000ACE4B2E08C9187FB16F00C94191A0C9462
:103430001B1A0C941519EEE4F2E40E94111D0E946F
:10344000C51B0E94CC1B77B7716077BF77B77064DC
:1034500077BF77B7746077BF81B5886081BD089505
:1034600084E08093030100910301063018F011F00D
:103470000C946F1A80E090E0A3E0B1E0AD90BB2423
:10348000A4E5B2E0AA0CBB1CAA0DBB1D8D939C93B6
:10349000A3E0B1E0AD90BB24A4E5B2E0AA0CBB1C54
:1034A000AA0DBB1DBA93AA9380910301D2018C93FC
:1034B00081E00E94751C82E0D2018C9381E00E9421
:1034C000751C0E94FA0C269682E00E94711CA3E0F3
:1034D000B1E08C918F5F8C9310F40C94331AACE5AF
:1034E000B2E08D919C91A6E0B3E08D939C93AEE504
:1034F000B2E08D919C91A8E0B3E08D939C93A0E6FF
:10350000B2E08D919C91AAE0B3E08D939C930895D5
:103510000F921F922F923F924F925F927F92AF92A3
:10352000BF920F931F932F933F934F935F936F938C
:103530007F938F939F93AF93BF93CF93DF93EF933B
:10354000FF938FB78F938BB78F9388278BBFAEE492
:10355000B2E08C918F5F8C9300914E020F3F11F07F
:103560000C94B81A8091510280934E020E94EA0D89
:103570008F918BBF8F918FBFFF91EF91DF91CF9193
:10358000BF91AF919F918F917F916F915F914F917B
:103590003F912F911F910F91BF90AF907F905F90BF
:1035A0004F903F902F901F900F9018950F921F9261
:1035B0002F923F924F925F927F92AF92BF920F9362
:1035C0001F932F933F934F935F936F937F938F93AB
:1035D0009F93AF93BF93CF93DF93EF93FF938FB7F7
:1035E0008F938BB78F9388278BBFAFE4B2E08C911A
:1035F0008F5F8C9300914F020F3F11F00C94061BCC
:103600008091520280934F020E94F70A8F918BBFE4
:103610008F918FBFFF91EF91DF91CF91BF91AF91CC
:103620009F918F917F916F915F914F913F912F91DA
:103630001F910F91BF90AF907F905F904F903F9000
:103640002F901F900F9018950F921F922F923F92DC
:103650004F925F927F92AF92BF920F931F932F93DF
:103660003F934F935F936F937F938F939F93AF930A
:10367000BF93CF93DF93EF93FF938FB78F938BB766
:103680008F9388278BBFA0E5B2E08C918F5F8C93DE
:10369000009150020F3F11F00C94541B8091530283
:1036A000809350020E9451088F918BBF8F918FBFE2
:1036B000FF91EF91DF91CF91BF91AF919F918F914A
:1036C0007F916F915F914F913F912F911F910F913A
:1036D000BF90AF907F905F904F903F902F901F9042
:1036E0000F90189509D00E94B51C00FC10D00895C9
:1036F00003D01ED001F8F9CF0024E89457FF02C090
:1037000009D0689400F80BD010F80124089502D075
:1037100009D00895509540954F5F5F4F0895E89404
:1037200017FF0895009510950F5F1F4F6894089537
:10373000352F242FE894452B11F468940895512FC8
:10374000402F0027112780E1440F551F001F111F34
:10375000021B130B416018F4020F131F4E7F8A9552
:1037600099F708958F938D918823E9F711978F9199
:1037700008955F9BFECF8CB10895A0E2BFE08D91CC
:10378000882311F00CD0FBCF08950E94FB1C802DE4
:1037900011F005D0FACF08958DE001D08AE05D9B4D
:1037A000FECF8CB9089500FC05D0089530D005D027
:1037B00001F8F9CF37D03FD00895842F952FA62F49
:1037C000B72FE894452B462B472B11F468940895A6
:1037D000402F512F622F732F0027112722273327C5
:1037E000F0E2440F551F661F771F001F111F221F95
:1037F000331F081B190B2A0B3B0B416028F4080FE1
:10380000191F2A1F3B1F4E7FFA9559F70895002470
:10381000E89477FF02C006D0689400F809D010F849
:103820000124089512D04F5F5F4F6F4F7F4F08956F
:10383000E89437FF089500951095209530950F5F17
:103840001F4F2F4F3F4F68940895409550956095B6
:103850007095089537FF089500951095209530953F
:103860000F5F1F4F2F4F3F4F08953197F1F7089586
:103870000E944B1C8D910E944F1C9A95D9F70E9473
:103880004D1C0895B99ABB98C39ABA9AB89AC09A2F
:1038900081E58DB90895C0980895C09A08958FB9AB
:1038A000779BFECF8FB10895689462F80895E894ED
:1038B00062F80895EF93FF93EE27E82BE92B31F0A0
:1038C000EDECFAE03197F1F70197D1F7FF91EF9125
:1038D000089501911191219130810895481A590A52
:1038E0000895481A8827580A089599275A924A92A3
:1038F000480E591E0895FD01002703959D91081754
:1039000009F091939923C9F70895689401C0E89448
:1039100031963324A250B0400D0182E090E0D001F6
:103920001ED00D911D918130930580F079F0149790
:103930004D915D914017510716F040F001C034F0F1
:1039400029F04D935D9301971297EDCFD00107D0E9
:103950000D931D930196E817F90709F708955C0187
:10396000AA0CBB1CAA0DBB1D08950F92B801469F5F
:103970008001479F100D569F100D0F9008950F92D4
:103980001F922F92C801D901489F80014A9F900140
:103990004B9F202C499F100D211D321D5A9F202C1A
:1039A000589F100D211D321D599F200D311D689FFC
:1039B000200D311D699F300D789F300D2F901F9085
:1039C0000F9008950E94FB1C0D920020D9F70895D6
:1039D000903041F00D911C91000F111F9A95E1F765
:1039E0001C930E930895903029F08C9186959A95AA
:1039F000E9F78C930895D895319628F48F938BB777
:103A000083958BBF8F910020089588279D91890F02
:103A10009923E1F708950F9301E00BBF0F9188946C
:103A200008950F930027F9CF0F9302E0F6CF040F0C
:103A3000151F261F371F0895041B150B260B370B68
:103A4000089504171507260737070895000F111F5B
:103A5000221F331F089500951095209530950F5F14
:103A60001F4F2F4F3F4F0895019110810CC00E94AE
:103A7000691C0BC00191108117FF05C03FEF2FEFAC
:103A800004C0008111272227332737FF03C0E3DF5B
:103A90008DE28D93CF92DF92EF92AA24BB24CC24A7
:103AA000DD24EE2440E2EAE0FF2755E093E3808145
:103AB000890F87FD9F7083FD907F891B81935A95A5
:103AC000A9F7C4DFAA1CBB1CCC1CDD1CEE1C4A954C
:103AD00051F7E894EFE0FF2782910CD0EB30E0F74C
:103AE0001EF068948A2D0AD088278D93EF90DF907E
:103AF000CF900895982F829501D0892F8F70805D87
:103B000026F0803309F4089568948D930895002772
:103B10001127222733271DD08A3328F4803318F049
:103B200005D015D0F9CF0EF496CF089580538F931A
:103B3000402F512F622F732F89DF88DF78DF86DFD8
:103B40008F919927080F191F291F391F08958D91EB
:103B50000895E894FCDF8032E9F38B32D9F38930A1
:103B6000C9F38D3211F46894F2CF089588278D93AC
:103B7000089594E081918D939A95E1F7089500233B
:103B800029F081918D930A958823C9F7EFCFFF9390
:103B9000881BF9E0001FFA9511F4FF910895881F22
:103BA000841B18F4840F8894F5CF0894F3CF68949D
:103BB00001C0E894AF93BF938D9116F0919103C02B
:103BC0000E94FB1C902D891718F011F48823A1F78F
:103BD000BF91AF910895689401C0E8942227102FF7
:103BE000231709F4089526F40E94FB1C802D01C0C0
:103BF0008191803081F0891741F070E08D931A95A2
:103C000091F7239571E01D93EACF01D0E8CF703092
:103C100011F077270895772331F42395882713959A
:103C20008D931A95E9F70895B7FE089590E8B916AF
:103C300011F4D0FE08959FEFD91AE90AF90A09F4A0
:103C40000395089588E00FB6F8945A924A92E42DAD
:103C5000F52DA42DB52D480E8827581E0FBE0895AA
:103C60000FB6F894499059900FBE08950F928F9314
:103C70009F93D216E306F4060FB680E890E88027FB
:103C800095270FBE890739F00FB6892B87FD02C033
:103C900081E008260FBE9F918F910F900895D190DB
:103CA000E190F190019108952191319141915191CB
:103CB0000895DD92ED92FD920C930895502F2D2DD5
:103CC0003E2D4F2D612F0895EADF992711278F2D63
:103CD000880F80E8F82A802F881F08F41FEF41F032
:103CE0008F57082F07FD04C0003240F08FEF01C04E
:103CF0008827982FD82EE82EF82E09C08FE1801B38
:103D0000082FF694E794D79497950A95D1F7112345
:103D100051F09095D094E094F09481E0980F88272A
:103D2000D81EE81EF81E0F2DFE2CED2CD92E08955E
:103D3000D094E094F09491E0D90E9927E91EF91EF1
:103D400010950895652F90E8440F551F5927990F36
:103D500047956078102F90E8FF0C001F0927990FF6
:103D6000F794107800380895FF0C90E89027110F11
:103D70009795F794092F08951127BD2CDE2CEF2C71
:103D8000F02E0EE1FF2039F4FE2CED2CDB2CBB24B1
:103D90000850C2F775C032F00A95BB0CDD1CEE1C52
:103DA000FF1CF9CF41DFE0CF102FBD2CDE2CEF2C14
:103DB000F02E11234AF4B094D094E094F0949FEF45
:103DC000B91AD90AE90AF90A0EE1FF2039F4FE2CE2
:103DD000ED2CDB2CBB240850C2F752C032F00A9500
:103DE000BB0CDD1CEE1CFF1CF9CF1EDFBDCF2DEC84
:103DF0003CEC4CEC5DE366270FC051DF5FDFDD2458
:103E0000EE2490E8F92E0FE307C04EDF05C022270D
:103E1000332740E251E46627552351F1002381F115
:103E200091DF71F11627005850580894050B18F4CB
:103E300007FD03C025C007FD23C04695379527958C
:103E4000F694E794D79425D0FF202AF0DD0CEE1CE1
:103E5000FF1C015073F09D2D969548F0DD203AF43B
:103E6000EE202AF491E0D90E9927E91EF91E7CCFA5
:103E700007C09FE7092FF92A9FEFD92EE92E089551
:103E8000DD24EE24FF240027112708950FE79FEF7C
:103E9000F2CF9F929924AA24BB2488E1D216E3068C
:103EA000F40628F0D21AE30AF40A089401C08894B0
:103EB000991CAA1CBB1CDD0CEE1CFF1C8A9571F71B
:103EC000D92CEA2CFB2C9F9008953CDFD9F0503878
:103ED000C9F016270058952F90580894091F12F41E
:103EE00018F40EC008F00EC00FD0FF202AF0BB0C53
:103EF000DD1CEE1CFF1C02C0039513F095DE34CFD1
:103F00000C94391F0C94401F9F92FF92EF928D2DBD
:103F1000FF24EE24DD24BB2493E0849F1001829FC4
:103F2000B00CD11CE21CF31C839FD00CE11C22249A
:103F3000F21C9A9531F0BD2CDE2CEF2CFF248F91D2
:103F4000ECCF9F900895B0DEFDDE503829F090E868
:103F500069270CC00AF045D007CF5FE3222733273B
:103F6000442701C0A1DEEEDE5038B1F3003899F3EA
:103F7000902F951B8BF312F434D0FACF983118F0B0
:103F8000222733274427983028F0232F342F442723
:103F90009850F9CF992329F04695379527959A950A
:103FA000D9F7912F962742F014D0B0F6F794E79402
:103FB000D7940F5F8BF65DCF10D051F008F4B8DEC8
:103FC000FF2052F2DD0CEE1CFF1C0150CBF751CF4D
:103FD00057CFD20EE31EF41E0895D21AE30AF40A54
:103FE0000895DF92EF92FF920F931F93D22EE32E4C
:103FF000F42E052F162F6F915F914F913F912F91C6
:1040000008950E94FB1C202D0E94FB1C302D0E9455
:10401000FB1C402D0E94FB1C502D0895B6D092DE53
:104020000395AAF087E1DD0CEE1CFF1C8A9589F050
:104030000A95CAF7FF205AF000240D280E280F28F1
:10404000002039F00A95DD0CEE1CFF1CDAF70A950A
:10405000A1C016CF9AD085E0F6DD0F7723E839EFBF
:1040600042E25EE332DFDBDF24DE139727D08A3FB4
:1040700040F000688D3F18F470DF80E803C077D00F
:1040800072DF882784831ADE20DF13DE139729EA84
:104090003EE64CE952EC19DF22E332E541E852E416
:1040A00052D022ED32EE4DE951EC4DD020E93FEFF8
:1040B0004FE75FE358DF84810827D2CD802F9F2D03
:1040C000991F881F991F881F08955FD080E003C043
:1040D0005CD0802F8078882321F0DF92EF92FF92CE
:1040E0000F938F930E94A21E802F839512F4C8DE37
:1040F0001BC080958A95885E0AF415C088501AF412
:104100000CD0D92210C0DD2488501AF406D0E92240
:104110000AC0EE2402D0F92206C09FEF8770990FE3
:104120008A95EAF7089536D08F918823D9F35F9165
:104130004F913F912F910F9399DD0F9199F390F348
:1041400016D0506810CF0FDFAFDD3497BECE1DD034
:1041500025E33AEF4EE85CE3B8CE17D0002331F008
:104160002BED3FE049EC5FEBFEDE75CF89CE5FE3E0
:1041700040E833272227089508D00F930F77EDDE0C
:10418000A8DF8F918078082B0895D190E190F1906D
:1041900001910895FF0C90E89027110F9795F794DF
:1041A000092F0895000080440000C842696E69002C
:1041B00073756D0040006469610061006200630016
:1041C0006400650066007300780053007400750099
:1041D00077002400790072657100262626006D00A4
:1041E0006E006F0070007100720067636F00676699
:1041F00031006766320067666E0063636F00636656
:1042000031006366320063666E0077636F00786327
:104210006F0079636F007A636F00676E6400636C90
:104220006400783164007832640079316400793256
:1042300064005353530063636300737373006164DA
:1042400063006334330063343400633435006C6FCF
:0E4250006B006334360063343700633438008B
:00000001FF
