:100000000C94460018950000189500001895000003
:10001000189500001895000018950000189500002C
:1000200018950000189500000C94701D189500009C
:1000300018950000189500000C94221D18950000DA
:100040000C94D41C189500000C94CA031895000059
:1000500018950000189500001895000018950000EC
:1000600018950000189500001895000018950000DC
:1000700018950000189500001895000018950000CC
:100080001895000018950000189500008FEF8DBF9F
:10009000C0ECE8E34E2E80E18EBFD0E1FFE05F2EA2
:1000A000A89584B7082E877F84BF88E1992781BDF2
:1000B00091BDEEEFFFE0A0E0B1E088278D9331978E
:1000C000E9F789E189B980E08093900088E18AB9F5
:1000D00066248FEF8ABBD598D6988FEF87BB8FEFBA
:1000E00081BB80E08093610080E080936400A098F1
:1000F000179A169A0E94522187E083BF80E08FBD35
:1001000081E08EBD85E085BD74B7777F74BF8FE1D8
:1001100097E081BD91BD81B5886081BD00E010E0B0
:1001200020E030E0A6E8B3E00D931D932D933C93BF
:1001300000E010E020E030E0AAE8B3E00D931D936A
:100140002D933C9300E010E020E030E0AEE8B3E017
:100150000D931D932D933C9380E08093750380E075
:100160008093760380E08093770380E08093780328
:10017000A8957894C79A929A939A949A959A969AEF
:1001800080E0D2018C9381E00E94852180E0D20141
:100190008C9381E00E9485210E945F17249682E063
:1001A0000E94812180E8D2018C9381E00E94852108
:1001B00081E0D2018C9381E00E9485210E945F172B
:1001C000249682E00E94812180E8D2018C9381E014
:1001D0000E94852182E0D2018C9381E00E948521DA
:1001E0000E945F17249682E00E94812180E8D2015C
:1001F0008C9381E00E94852183E0D2018C9381E081
:100200000E9485210E945F17249682E00E9481212E
:1002100080E8D2018C9381E00E94852184E0D201A4
:100220008C9381E00E9485210E945F17249682E0D2
:100230000E94812180E8D2018C9381E00E94852177
:1002400085E0D2018C9381E00E9485210E945F1796
:10025000249682E00E9481218DEF8093550287EFE2
:10026000809356028CEE80935702809155028093C2
:1002700052028091560280935302809157028093DC
:10028000540284E68093580284E68093590280E009
:1002900080935102EAEBFBE40E9421220E94D520C8
:1002A0000E94DC200E94C920A0E0B1E08C93009164
:1002B00000010A3711F00C945F010E947D0100914A
:1002C0005102043A11F00C945F0180E395E79DBD63
:1002D0008CBD87E083BF81E08EBD85E085BD579AE8
:1002E00077B7716077BF77B7746077BF77B770649F
:1002F00077BF0C947901F894FFCFA89580E08093A4
:10030000510200E010E020E030E0A7E4B2E00D93FD
:100310001D932D933C93ACEFB2E0BA93AA930E9445
:100320008E032296AEEFB2E0BA93AA930E948E0398
:100330002296A2E0B3E0BA93AA930E948E0322967B
:10034000A4E0B3E0BA93AA930E948E032296A8E099
:10035000B3E0BA93AA930E948E032296ACE0B3E076
:10036000BA93AA930E948E032296AEE0B3E0BA93AA
:10037000AA930E948E032296A2E1B3E0BA93AA93B5
:100380000E948E032296A4E1B3E0BA93AA930E943E
:100390008E032296A8E1B3E0BA93AA930E948E033B
:1003A0002296A0E2B3E0BA93AA930E948E0322960B
:1003B000A4E2B3E0BA93AA930E948E032296A8E225
:1003C000B3E0BA93AA930E948E032296ACE2B3E004
:1003D000BA93AA930E948E032296AEE7B3E0BA9333
:1003E000AA930E948E032296AFE7B3E0BA93AA9332
:1003F0000E948E032296A0E8B3E0BA93AA930E94CB
:100400008E032296A4E3B3E0BA93AA930E948E03CC
:100410002296A8E3B3E0BA93AA930E948E03229691
:10042000ACE3B3E0BA93AA930E948E032296A0E4B1
:10043000B3E0BA93AA930E948E032296A2E8B3E097
:10044000BA93AA930E948E032296A3E8B3E0BA93CC
:10045000AA930E948E032296A4E8B3E0BA93AA93CB
:100460000E948E032296A8E9B2E0BA93AA930E9452
:100470008E032296ACE9B2E0BA93AA930E948E034F
:100480002296A0EAB2E0BA93AA930E948E03229623
:10049000A4EAB2E0BA93AA930E948E032296A9ED31
:1004A000B2E0BA93AA930E948E032296AAEDB2E01C
:1004B000BA93AA930E948E032296ABEDB2E0BA9350
:1004C000AA930E948E032296A8EAB2E0BA93AA9356
:1004D0000E948E032296ACEAB2E0BA93AA930E94DD
:1004E0008E032296A0EBB2E0BA93AA930E948E03E9
:1004F0002296A4EBB2E0BA93AA930E948E032296AE
:10050000ADEDB2E0BA93AA930E948E032296AEEDAF
:10051000B2E0BA93AA930E948E032296AFEDB2E0A6
:10052000BA93AA930E948E032296A8EBB2E0BA93E4
:10053000AA930E948E032296ACEBB2E0BA93AA93E0
:100540000E948E032296A0ECB2E0BA93AA930E9476
:100550008E032296A4ECB2E0BA93AA930E948E0373
:100560002296A1EEB2E0BA93AA930E948E0322963D
:10057000A2EEB2E0BA93AA930E948E032296A3EE53
:10058000B2E0BA93AA930E948E032296A8ECB2E03E
:10059000BA93AA930E948E032296ACECB2E0BA936F
:1005A000AA930E948E032296A0EDB2E0BA93AA937A
:1005B0000E948E032296A4EDB2E0BA93AA930E9401
:1005C0008E032296A5EEB2E0BA93AA930E948E0300
:1005D0002296A6EEB2E0BA93AA930E948E032296C8
:1005E000A7EEB2E0BA93AA930E948E032296A0E6E9
:1005F000B3E0BA93AA930E948E032296A3E6B3E0D7
:10060000BA93AA930E948E032296A1E6B3E0BA930E
:10061000AA930E948E032296ADE6B3E0BA93AA9302
:100620000E948E032296AFE6B3E0BA93AA930E948B
:100630008E032296A1E7B3E0BA93AA930E948E0399
:100640002296A3E7B3E0BA93AA930E948E03229660
:10065000A5E6B3E0BA93AA930E948E032296A7E67A
:10066000B3E0BA93AA930E948E032296A9E6B3E060
:10067000BA93AA930E948E032296ABE6B3E0BA9394
:10068000AA930E948E03229681E090E00E946A2144
:10069000E7E4F2E0A7E0B1E00E944722EEEBFBE4E2
:1006A0000E9421220E94D520E7E4F2E0A0E2BFE010
:1006B0000E9447220E94CD200E94DC200E94C92077
:1006C000A0E0B1E08C93009100010B3711F00C9485
:1006D0008D030E94C920A0E0B1E08C93009100013D
:1006E0000C3711F00C948D030E94C920A0E0B1E0FA
:1006F0008C93009100010D3711F00C948D030E9432
:10070000C920A0E0B1E08C93009100010E3711F0F8
:100710000C948D0384EA809351020895A7E0B1E020
:1007200088278C930E94C920A0E0B1E08C930091AF
:1007300000010F3211F00C949F030C94AB03A0E066
:10074000B1E08C91A7E0B1E00E94BE208D93882794
:100750008C930C949203A7E0B1E00E949A22A881A6
:10076000B9810D931D932D933D93A7E4B2E00D91B4
:100770001D912D913C91A881B9814D915D916D9113
:100780007C910E942722A7E4B2E00D931D932D9344
:100790003D9308950F921F922F923F924F925F9236
:1007A0007F92AF92BF920F931F932F933F934F93DC
:1007B0005F936F937F938F939F93AF93BF93CF93E9
:1007C000DF93EF93FF938FB78F938BB78F93882728
:1007D0008BBFA89577B77E7F77BF77B77B7F77BFD3
:1007E00077B77F7B77BF0E94C920A5E0B1E08D93EA
:1007F00088278C9300915902083C11F00C94BD0697
:1008000000915802083C11F00C94D205A5E0B1E02B
:10081000E2ECFBE40E9421220E94EB2211F00C94F6
:10082000A605E4ECFBE40E9421220E94D5200E9450
:10083000DC200E94C920A5E0B1E08D9388278C932D
:10084000A5E0B1E0E8ECFBE40E9421220E94EB224B
:1008500011F00C94AC0400E010E020E030E0A7E3DD
:10086000B2E00D931D932D933C93A7E3B2E0BA93AE
:10087000AA930E948F082296A7E3B2E00D911D91E2
:100880002D913C9140E850E060E070E00E942C2205
:10089000A7E3B2E00D931D932D933D93A7E3B2E040
:1008A0000D911D912D913C9142E050E060E070E08F
:1008B0000E94CF21A7E3B2E00D931D932D933D93AA
:1008C00040E050E060E070E0A7E3B2E00D911D91E0
:1008D0002D913C910E9431221CF011F00C94720475
:1008E0000C9476049198909A0C948C0440E050E01B
:1008F00060E070E0A7E3B2E00D911D912D913C9175
:100900000E9431220CF402C00C948A04919A9098AF
:100910000C948C0491989098A7E3B2E00D911D91EE
:100920002D913C910E943A21ADE7B3E00C93809168
:100930007D03D2018C9381E00E94852180E0D20169
:100940008C9381E00E9485210E945F17249682E0AB
:100950000E9481210C94A405EAECFBE40E94212270
:100960000E94EB2211F00C94DE0480E0809381035E
:10097000A1E8B3E0BA93AA930E948F0822968091CF
:100980008103D2018C9381E00E94852181E0D20114
:100990008C9381E00E9485210E945F17249682E05B
:1009A0000E94812100918103003811F00C94DB0436
:1009B000929A0C94DC0492980C94A405ECECFBE461
:1009C0000E9421220E94EB2211F00C94100580E07D
:1009D0008093D802A8EDB2E0BA93AA930E948F0840
:1009E00022968091D802D2018C9381E00E948521C9
:1009F00082E0D2018C9381E00E9485210E945F17E2
:100A0000249682E00E9481210091D802003811F0E2
:100A10000C940D05939A0C940E0593980C94A405D0
:100A2000EEECFBE40E9421220E94EB2211F00C94D8
:100A3000420580E08093DC02ACEDB2E0BA93AA9369
:100A40000E948F0822968091DC02D2018C9381E073
:100A50000E94852183E0D2018C9381E00E94852150
:100A60000E945F17249682E00E9481210091DC029F
:100A7000003811F00C943F05949A0C94400594981A
:100A80000C94A405E0EDFBE40E9421220E94EB22DD
:100A900011F00C94740580E08093E002A0EEB2E0C7
:100AA000BA93AA930E948F0822968091E002D20105
:100AB0008C9381E00E94852184E0D2018C9381E0B7
:100AC0000E9485210E945F17249682E00E94812166
:100AD0000091E002003811F00C947105959A0C9485
:100AE000720595980C94A405E2EDFBE40E94212286
:100AF0000E94EB2211F00C94A40580E08093E402A4
:100B0000A4EEB2E0BA93AA930E948F082296809135
:100B1000E402D2018C9381E00E94852185E0D2011C
:100B20008C9381E00E9485210E945F17249682E0C9
:100B30000E9481210091E402003811F00C94A30579
:100B4000969A0C94A40596980C94D005E4EDFBE4D9
:100B50000E9421220E94EB2211F00C94B40584E63D
:100B6000809358020C94D005E6EDFBE40E9421220C
:100B70000E94EB2211F00C94C50584E68093590283
:100B800084E6809358020C94D005E8EDFBE40E94C3
:100B900021220E94EB2211F00C94D0050C94CE057A
:100BA0000C94BB06A5E0B1E0EAEDFBE40E94212233
:100BB0000E94EB2211F00C9478060E94C920A0E05C
:100BC000B1E08C9300910001043211F00C94760690
:100BD00088EC8093580290989198929A939A949A5C
:100BE000959A969A80E080937D0380E880938103B4
:100BF00080E88093D80280E88093DC0280E88093CC
:100C0000E00280E88093E40280917D03D2018C931E
:100C100081E00E94852180E0D2018C9381E00E94D6
:100C200085210E945F17249682E00E948121809195
:100C30008103D2018C9381E00E94852181E0D20161
:100C40008C9381E00E9485210E945F17249682E0A8
:100C50000E9481218091D802D2018C9381E00E9470
:100C6000852182E0D2018C9381E00E9485210E943F
:100C70005F17249682E00E9481218091DC02D201DC
:100C80008C9381E00E94852183E0D2018C9381E0E6
:100C90000E9485210E945F17249682E00E94812194
:100CA0008091E002D2018C9381E00E94852184E052
:100CB000D2018C9381E00E9485210E945F172496C7
:100CC00082E00E9481218091E402D2018C9381E034
:100CD0000E94852185E0D2018C9381E00E948521CC
:100CE0000E945F17249682E00E9481210C94BB062B
:100CF000ECEDFBE40E9421220E94EB2211F00C9407
:100D000085060E949A170C94BB06EEEDFBE40E9448
:100D100021220E94EB2211F00C9492060E94381AB4
:100D20000C94BB06E8EDFBE40E9421220E94EB221A
:100D300011F00C949F060C949B060C94BB06E6EDF8
:100D4000FBE40E9421220E94EB2211F00C94B006D9
:100D500084E68093590284E6809358020C94BB0683
:100D6000E0EEFBE40E9421220E94EB2211F00C94A1
:100D7000BB060E942D070C94F306A5E0B1E0E0EE5F
:100D8000FBE40E9421220E94EB2211F00C94CC067D
:100D90000E942D070C94F306E2EEFBE40E94212250
:100DA0000E94EB2211F00C94DA0688EC8093590231
:100DB0000C94F306E4EDFBE40E9421220E94EB2256
:100DC00011F00C94E80684E6809358020C94F30624
:100DD000E8EDFBE40E9421220E94EB2211F00C942A
:100DE000F3060C94F10600915802043681E009F0F4
:100DF00080E08F9300915902043681E009F080E091
:100E00009F91892B882311F40C94090777B771609F
:100E100077BF77B7746077BF77B7706477BF8F910C
:100E20008BBF8F918FBFFF91EF91DF91CF91BF91DA
:100E3000AF919F918F917F916F915F914F913F9172
:100E40002F911F910F91BF90AF907F905F904F9027
:100E50003F902F901F900F901895A7E0B1E0882742
:100E60008C93E4EEFBE40E9421220E94D5200E9494
:100E7000DC200E94C920A0E0B1E08C930091000129
:100E8000063211F00C9446070C945207A0E0B1E032
:100E90008C91A7E0B1E00E94BE208D9388278C93AF
:100EA0000C943907E8EEFBE40E9421220E94D52031
:100EB0000E94DC20E7E0F1E093E602E332E0A9E7FC
:100EC000B1E00E940123ABE4B1E02D9388278C931D
:100ED000ACEAB1E00E949A22AFE4B2E00C934091F8
:100EE0004F024F93A9E7B1E00E941522082F4F91BE
:100EF000041781E009F080E08F93ABE4B1E00D913D
:100F00001C91023050E0150781E009F080E09F91CC
:100F10008923882311F40C948E08E9E7F1E09FE21D
:100F20000AE036E0AFEDB1E00E940123ABE4B1E0AE
:100F30002D9388278C9381E080930201ABE4B1E08C
:100F40004D915C91A2E0B1E00D91112704171507B6
:100F500018F011F00C948E08E2E0F1E001911127F5
:100F60004BE050E00E94C521E4EDF1E0E00FF11FFD
:100F700001E0A5E0B1E00E94D22281E0A2E0B1E070
:100F80000D9111274BE050E00E94C521A4EDB1E086
:100F9000A00FB11F0E948B21A5E0B1E0ECEEFBE4B5
:100FA0000E9421220E94EB2211F00C94ED07A2E096
:100FB000B1E00D9111274BE050E00E94C521A4ED56
:100FC000B1E0A00FB11F0E949A22A0E8B2E00D93F9
:100FD0001D932D933D930C948608EEEEFBE40E9446
:100FE00021220E94EB2211F00C940C08A2E0B1E047
:100FF0000D9111274BE050E00E94C521A4EDB1E016
:10100000A00FB11F0E949A22A4E8B2E00D931D9395
:101010002D933D930C948608E0EFFBE40E9421227F
:101020000E94EB2211F00C942B08A2E0B1E00D918C
:1010300011274BE050E00E94C521A4EDB1E0A00FC4
:10104000B11F0E949A22A8E8B2E00D931D932D9340
:101050003D930C948608E2EFFBE40E9421220E945B
:10106000EB2211F00C944A08A2E0B1E00D91112797
:101070004BE050E00E94C521A4EDB1E0A00FB11FEC
:101080000E949A22ACE8B2E00D931D932D933D93FC
:101090000C948608E4EFFBE40E9421220E94EB22DC
:1010A00011F00C946908A2E0B1E00D9111274BE01A
:1010B00050E00E94C521A4EDB1E0A00FB11F0E9435
:1010C0009A22A0E9B2E00D931D932D933D930C94C9
:1010D0008608E6EFFBE40E9421220E94EB2211F039
:1010E0000C948608A2E0B1E00D9111274BE050E08E
:1010F0000E94C521A4EDB1E0A00FB11F0E949A2269
:10110000A4E9B2E00D931D932D933D93A2E0B1E0CD
:101110008C918F5F8C9310F40C949E070895AAE332
:10112000B1E088278C930E94C920A0E0B1E08C93A5
:10113000009100010F3211F00C94A0080C94AC083F
:10114000A0E0B1E08C91AAE3B1E00E94BE208D93B3
:1011500088278C930C949308AAE3B1E00E949A220A
:1011600040E8040FA881B9810C930895A8950091D7
:101170005902083C11F00C941409D201E8EFFBE489
:101180000E9421220E94F22184E00E948521A8EE83
:10119000B2E08D919C91D2018D939D9388278D9380
:1011A0008C9384E00E9485210E94730B249688E032
:1011B0000E948121D201ECEFFBE40E9421220E94D7
:1011C000F22184E00E948521AAEEB2E08D919C91EB
:1011D000D2018D939D9388278D938C9384E00E94F8
:1011E00085210E94730B249688E00E948121D20100
:1011F000E0E0FCE40E9421220E94F22184E00E94AF
:101200008521ACEEB2E08D919C91D2018D939D939E
:1012100088278D938C9384E00E9485210E94730B14
:10122000249688E00E948121D201E4E0FCE40E943F
:1012300021220E94F22184E00E948521AEEEB2E0DC
:101240000D911D912D913C91D2010D931D932D93E4
:101250003C9384E00E9485210E94730B249688E0D1
:101260000E94812100915902083C11F00C948F09D1
:10127000D201E8E0FCE40E9421220E94F22184E0F5
:101280000E948521A2EFB2E08D919C91D2018D93B5
:101290009D9388278D938C9384E00E9485210E94E2
:1012A000730B249688E00E948121D201ECE0FCE4DB
:1012B0000E9421220E94F22184E00E948521A4EF55
:1012C000B2E08D919C91D2018D939D9388278D934F
:1012D0008C9384E00E9485210E94730B249688E001
:1012E0000E948121D201E0E1FCE40E9421220E94BF
:1012F000F22184E00E948521A6EFB2E08D919C91BD
:10130000D2018D939D9388278D938C9384E00E94C6
:1013100085210E94730B249688E00E948121D201CE
:10132000E4E1FCE40E9421220E94F22184E00E9478
:101330008521A8EFB2E00D911D912D913C91D20134
:101340000D931D932D933C9384E00E9485210E9470
:10135000730B249688E00E948121D201E8E1FCE42D
:101360000E9421220E94F22184E00E948521A0E7B0
:10137000B2E00D911D912D913C91D2010D931D93E1
:101380002D933C9384E00E9485210E94730B249648
:1013900088E00E948121D201ECE1FCE40E9421223C
:1013A0000E94F22184E00E948521A4E7B2E00D9121
:1013B0001D912D913C91D2010D931D932D933C9342
:1013C00084E00E9485210E94730B249688E00E948D
:1013D0008121D201E0E2FCE40E9421220E94F2215C
:1013E00084E00E948521A8E7B2E00D911D912D9126
:1013F0003C91D2010D931D932D933C9384E00E9468
:1014000085210E94730B249688E00E948121D201DD
:10141000E4E2FCE40E9421220E94F22184E00E9486
:101420008521ACE7B2E00D911D912D913C91D20147
:101430000D931D932D933C9384E00E9485210E947F
:10144000730B249688E00E948121D201E8E2FCE43B
:101450000E9421220E94F22184E00E948521A0E8BE
:10146000B2E00D911D912D913C91D2010D931D93F0
:101470002D933C9384E00E9485210E94730B249657
:1014800088E00E948121D201ECE2FCE40E9421224A
:101490000E94F22184E00E948521A4E8B2E00D912F
:1014A0001D912D913C91D2010D931D932D933C9351
:1014B00084E00E9485210E94730B249688E00E949C
:1014C0008121D201E0E3FCE40E9421220E94F2216A
:1014D00084E00E948521A8E8B2E00D911D912D9134
:1014E0003C91D2010D931D932D933C9384E00E9477
:1014F00085210E94730B249688E00E948121D201ED
:10150000E4E3FCE40E9421220E94F22184E00E9494
:101510008521ACE8B2E00D911D912D913C91D20155
:101520000D931D932D933C9384E00E9485210E948E
:10153000730B249688E00E948121D201E8E3FCE449
:101540000E9421220E94F22184E00E948521A0E9CC
:10155000B2E00D911D912D913C91D2010D931D93FF
:101560002D933C9384E00E9485210E94730B249666
:1015700088E00E948121D201ECE3FCE40E94212258
:101580000E94F22184E00E948521A4E9B2E00D913D
:101590001D912D913C91D2010D931D932D933C9360
:1015A00084E00E9485210E94730B249688E00E94AB
:1015B000812100915802083C11F00C94E70AE0E404
:1015C000FCE40E9421220E94D5200E94DC20EF939F
:1015D000FF93E4E2F0E00E944521FF91EF9100913A
:1015E0005902043611F00C94070BE4E4FCE40E9469
:1015F00021220E94D5200E94DC20EF93FF93E4E299
:10160000F0E00E944521FF91EF910C941D0B009199
:101610005902083C11F00C941D0BE8E4FCE40E9414
:1016200021220E94D5200E94DC20EF93FF93E4E268
:10163000F0E00E944521FF91EF91D201ECE4FCE43F
:101640000E9421220E94F22184E00E948521A5E4CB
:10165000B2E08D919C91D2018D939D9388278D93BB
:101660008C9384E00E9485210E94730B249688E06D
:101670000E94812100917503003018F011F00C9444
:10168000430B0C94480B8091750381508093750334
:1016900000917603003018F011F00C94510B0C946B
:1016A000560B8091760381508093760300917703E7
:1016B000003018F011F00C945F0B0C94640B8091C7
:1016C000770381508093770300917803003018F0FE
:1016D00011F00C946D0B0C94720B80917803815077
:1016E00080937803089580E10E948521EA81FB813F
:1016F000A881B9810E944722AC81BD810E94CF2080
:10170000A881B9810E94CF200E94DC20EF93FF9333
:10171000E4E2F0E00E944521FF91EF9180E1481A58
:1017200080E0580A22960895A89581E080930201EE
:10173000009102010B3018F011F00C94D40B80E0F2
:1017400090E0A2E0B1E0AD90BB24A8E5B2E0AA0C25
:10175000BB1CAA0DBB1D8D939C93A2E0B1E0AD9084
:10176000BB24A8E5B2E0AA0CBB1CAA0DBB1DBA9312
:10177000AA9380910201D2018C9381E00E9485217D
:1017800084E1D2018C9381E00E9485210E94D30DD7
:10179000269682E00E948121A2E0B1E08C918F5FC9
:1017A0008C9310F40C94980BAAE5B2E08D919C9167
:1017B000A8EEB2E08D939C93ACE5B2E08D919C9144
:1017C000AAEEB2E08D939C93AEE5B2E08D919C9130
:1017D000ACEEB2E08D939C93A0E6B2E08D919C912B
:1017E000A2EFB2E08D939C93A2E6B2E08D919C9122
:1017F000A4EFB2E08D939C93A4E6B2E08D919C910E
:10180000A6EFB2E08D939C93A6E6B2E08D919C91F9
:10181000A0E7B2E08D939D9388278D938C93A8E6E3
:10182000B2E08D919C91A4E7B2E08D939D938827BF
:101830008D938C93AAE6B2E08D919C91A8E7B2E0DB
:101840008D939D9388278D938C93ACE6B2E08D9118
:101850009C91ACE7B2E08D939D9388278D938C93F8
:10186000AEE6B2E08D919C91A5E4B2E08D939C939D
:10187000ECEFF2E0D190E080FF2400270E94D0231B
:101880000E9472232F933F934F935F93E8EEF2E011
:10189000D190E080FF2400270E94D0235F914F91D8
:1018A0003F912F910E94B824EDE0F0E0ABE3B2E06D
:1018B0000E94CC22EEEFF2E00E9463230E94E82314
:1018C0000E947223EBE3F2E00E9463230E94202433
:1018D000EDE0F0E0ABE3B2E00E94CC22EBE3F2E01B
:1018E0000E947C25EDE0F0E00E947823AFE3B2E0B7
:1018F000EDE0FF270E94CC2200913F0242E00E94CF
:10190000DB22A2E0B1E08C9300910201003011F0E3
:101910000C94A20CE2EBFBE40E9421220E9415250C
:10192000EAEEF2E0D190E080FF2400270E94D0236D
:101930000E94B824EDE0F0E0ABE3B2E00E94CC22DC
:101940000C94B80CE2EBFBE40E9421220E941525C6
:10195000ECEEF2E0D190E080FF2400270E94D0233B
:101960000E94B824EDE0F0E0ABE3B2E00E94CC22AC
:10197000AFE3B2E00D911D912D913C91A2E0B3E057
:101980004D915C91662777270E94CF21AFE3B2E0AB
:101990000D931D932D933D93EFE3F2E00E9463239B
:1019A0000E94E8230E947223EBE3F2E00E9463238B
:1019B0000E94C724EDE0F0E00E947823AEEEB2E092
:1019C000EDE0FF270E94CC22ECE0F3E0D190E08034
:1019D000FF2400270E94D0230E9472232F933F935D
:1019E0004F935F93E2EFF2E0D190E080FF24002775
:1019F0000E94D0235F914F913F912F910E94B82474
:101A0000EDE0F0E0ABE3B2E00E94CC22EEE0F3E0E8
:101A10000E9463230E94E8230E947223EBE3F2E01A
:101A20000E9463230E942024EDE0F0E0ABE3B2E0EB
:101A30000E94CC22EBE3F2E00E947C25EDE0F0E096
:101A40000E947823AFE3B2E0EDE0FF270E94CC22B2
:101A500000913F0242E00E94DB22A2E0B1E08C93C1
:101A600000910201003011F00C944E0DE2EBFBE40A
:101A70000E9421220E941525E4EFF2E0D190E0803F
:101A8000FF2400270E94D0230E94B824EDE0F0E05C
:101A9000ABE3B2E00E94CC220C94640DE2EBFBE4D9
:101AA0000E9421220E941525E6EFF2E0D190E0800D
:101AB000FF2400270E94D0230E94B824EDE0F0E02C
:101AC000ABE3B2E00E94CC22AFE3B2E00D911D91F6
:101AD0002D913C91A2E1B3E04D915C91662777276F
:101AE0000E94CF21AFE3B2E00D931D932D933D9360
:101AF000EFE3F2E00E9463230E94E8230E94722336
:101B0000EBE3F2E00E9463230E94C724EDE0F0E0E3
:101B10000E947823A8EFB2E0EDE0FF270E94CC22DC
:101B200006E01BE12FEF3FEFAEEEB2E00D931D9309
:101B30002D933C9301E71DE620E030E0A8EFB2E0F2
:101B40000D931D932D933C9300E018E020E030E0CE
:101B5000A0E7B2E00D931D932D933C9300E018E0B5
:101B600020E030E0A4E7B2E00D931D932D933C9369
:101B700000E018E020E030E0A8E7B2E00D931D930C
:101B80002D933C9300E018E020E030E0ACE7B2E0B9
:101B90000D931D932D933C9380E098E0A5E4B2E073
:101BA0008D939C93089500E2AA81BB814C91041B04
:101BB000A1E0B1E00C93A1E0B1E08C918BBB0000FF
:101BC0000000000000000000000000000000000015
:101BD00081E080930301A881B9814C9100910301B8
:101BE000041718F011F00C94730EDC98000000003C
:101BF00000000000000000000000000000009899B4
:101C00000C94FF0DDC9A00000000000000000000B2
:101C1000000000000000000080E090E0A3E0B1E0E0
:101C2000AD90BB24ABE4B1E0AA0CBB1CAA0DBB1D5C
:101C30008D939C9380B1A3E0B1E0AD90BB24ABE465
:101C4000B1E0AA0CBB1CAA0DBB1D8D9388278C93F9
:101C500080E090E0ABE4B1E08D939C9380916300D1
:101C6000ABE4B1E08D9388278C93ABE4B1E00D91A8
:101C70001C914FE050E004231523ABE4B1E00D9339
:101C80001C93ABE4B1E00D911C9140E051E00E9447
:101C9000C521ABE4B1E00D931C93A3E0B1E0AD909E
:101CA000BB24ABE4B1E0AA0CBB1CAA0DBB1D0D917B
:101CB0001C91ABE4B1E04D915C91040F151FA3E0C2
:101CC000B1E0AD90BB24ABE4B1E0AA0CBB1CAA0D03
:101CD000BB1D0D931C93A3E0B1E08C918F5F8C939F
:101CE00010F40C94EB0DA881B9810C91033018F01D
:101CF00011F00C947D0E0C94850EA881B981EC91A5
:101D0000FF27ADE4B1E00E94972100E010E020E061
:101D100030E0A5E7B1E00D931D932D933C9380E057
:101D200080930401A881B9810C9144E00E94DB22D8
:101D3000A0E0B1E00C93A881B9810C914091000121
:101D4000041BA1E0B1E00C93A0E0B1E08C918F5FA7
:101D50008C938091000180930301409101010091D7
:101D60000301041718F011F00C94DF0EA5E7B1E0A1
:101D70000D911D912D913C91A3E0B1E0AD90BB245C
:101D8000ABE4B1E0AA0CBB1CAA0DBB1D4D915C914C
:101D9000662777270E942722A5E7B1E00D931D93C0
:101DA0002D933D93A4E0B1E08C918F5F8C93A3E0E1
:101DB000B1E08C918F5F8C9310F40C94AD0EA5E77D
:101DC000B1E00D911C91A4E0B1E04D9155270E9426
:101DD000A420AC81BD814D935C930895A895AEEE8F
:101DE000B2E00D911D912D913C914AE050E060E0F0
:101DF00070E00E94E620ACE1B3E04D935D936D93FB
:101E00007D93ACE1B3E00D911D912D913C91A4E047
:101E1000B3E04D915D916D917C910E94CF21ACE139
:101E2000B3E00D931D932D933D93ACE1B3E00D9181
:101E30001D912D913C9140E157E260E070E00E94DD
:101E4000E620ACE1B3E04D935D936D937D93ACE1FF
:101E5000B3E00D911D912D913C91A8E0B3E04D911F
:101E60005D916D917C910E942722ACE1B3E00D93CE
:101E70001D932D933D93ECE1F3E00E9463230E94B8
:101E8000E823A0E5B3E00E946D23E0E5F3E00E94C3
:101E9000BB25EDE0F0E0A0E5B3E00E94CC22A8EF86
:101EA000B2E00D911D912D913C9144E650E060E02F
:101EB00070E00E94E620A0E3B3E04D935D936D9344
:101EC0007D93A0E3B3E00D911D912D913C91A4E190
:101ED000B3E04D915D916D917C910E94CF21A0E383
:101EE000B3E00D931D932D933D93A0E3B3E00D91CB
:101EF0001D912D913C9148EE53E060E070E00E940E
:101F0000E620A0E3B3E04D935D936D937D93A0E352
:101F1000B3E00D911D912D913C91A8E1B3E04D915D
:101F20005D916D917C910E942722A0E3B3E00D9317
:101F30001D932D933D93E0E3F3E00E9463230E9401
:101F4000E823A4E5B3E00E946D23E4E5F3E00E94FA
:101F5000BB25EDE0F0E0A4E5B3E00E94CC22E0E593
:101F6000F3E00E94C125EDE0F0E0A4E4B3E00E94BC
:101F7000CC22E4E5F3E00E94C125EDE0F0E0A8E426
:101F8000B3E00E94CC22E4E5F3E00E943E25EDE0C0
:101F9000F0E0ACE4B3E00E94CC22E4E4F3E00E9481
:101FA0006823E0E6F3E0D080EE24FF2400270E94BF
:101FB000E8230E947924EDE0F0E0A8E5B3E00E9478
:101FC000CC22E6EBFBE40E9421220E941525E8E5E5
:101FD000F3E00E9463230E942024EDE0F0E0A8E5F6
:101FE000B3E00E94CC22ECE4F3E00E946823E8E531
:101FF000F3E00E9463230E947924EDE0F0E0ACE579
:10200000B3E00E94CC22E8E4F3E00E946823E8E514
:10201000F3E00E9463230E947924EDE0F0E0A8E55C
:10202000B3E00E94CC2240E050E060E070E0A0E825
:10203000B2E00D911D912D913C910E94312211F43D
:102040000C94A411A2E3B0E00C9101FB81E00EF42A
:1020500080E08F93A2E3B0E00C9100FB81E00EF4EE
:1020600080E09F918923882311F40C944510A4E209
:10207000B3E00D911D912D913C91AFE3B2E00D9332
:102080001D932D933C930C945110A0E2B3E00D915D
:102090001D912D913C91AFE3B2E00D931D932D93D3
:1020A0003C93AEEEB2E04D915D916D917C91A0E8D4
:1020B000B2E00D911D912D913C910E9431221CF0B6
:1020C00011F00C9465100C94F810A0E8B2E00D919A
:1020D0001D912D913C91AEEEB2E04D915D916D91CF
:1020E0007C910E942C22A3E3B2E00D931D932D93CB
:1020F0003D93AFE3B2E04D915D916D917C91A3E38F
:10210000B2E00D911D912D913C910E9431221CF065
:1021100011F00C948D100C94F1109198909AA8E203
:10212000B3E04D915D916D917C91A3E3B2E00D918F
:102130001D912D913C910E9431220CF402C00C940F
:10214000A51080917E0380937D03A3E3B2E04D91BF
:102150005D916D917C91A8E2B3E00D911D912D915F
:102160003C910E94312281E014F009F080E08F93CD
:10217000ACE2B3E04D915D916D917C91A3E3B2E04F
:102180000D911D912D913C910E94312280E00CF423
:1021900081E09F918923882311F40C94D3108091BE
:1021A0007F0380937D03A3E3B2E04D915D916D9138
:1021B0007C91ACE2B3E00D911D912D913C910E9478
:1021C00031220CF402C00C94E910809180038093BA
:1021D0007D03ADE7B3E00C9142E0049F0C920C94B8
:1021E000F6109198909880E080937D030C94A21152
:1021F000AEEEB2E04D915D916D917C91A0E8B2E0C0
:102200000D911D912D913C910E9431220CF402C040
:102210000C949D11AEEEB2E00D911D912D913C916B
:10222000A0E8B2E04D915D916D917C910E942C22CD
:10223000A3E3B2E00D931D932D933D93AFE3B2E082
:102240004D915D916D917C91A3E3B2E00D911D9153
:102250002D913C910E9431221CF011F00C9432110E
:102260000C9496119098919AA8E2B3E04D915D91EB
:102270006D917C91A3E3B2E00D911D912D913C9164
:102280000E9431220CF402C00C944A1180917E030A
:1022900080937D03A3E3B2E04D915D916D917C91BC
:1022A000A8E2B3E00D911D912D913C910E94312245
:1022B00081E014F009F080E08F93ACE2B3E04D913F
:1022C0005D916D917C91A3E3B2E00D911D912D91F3
:1022D0003C910E94312280E00CF481E09F9189239F
:1022E000882311F40C94781180917F0380937D03EF
:1022F000A3E3B2E04D915D916D917C91ACE2B3E0CE
:102300000D911D912D913C910E9431220CF402C03F
:102310000C948E118091800380937D03ADE7B3E030
:102320000C9142E0049F0C920C949B119098919810
:1023300080E080937D030C94A2119098919880E0A6
:1023400080937D030C94A9119098919880E08093DC
:102350007D0380917D03D2018C9381E00E948521D1
:1023600080E0D2018C9381E00E9485210E945F175A
:10237000249682E00E94812140E050E060E070E01D
:10238000A4E8B2E00D911D912D913C910E94312263
:1023900011F40C942212929B0C94DC11A8E3B3E08C
:1023A0000D911D912D913C91AFE3B2E00D931D93E2
:1023B0002D933C930C94E811A4E3B3E00D911D918F
:1023C0002D913C91AFE3B2E00D931D932D933C937F
:1023D00000E010E020E030E0A3E3B2E00D931D93B5
:1023E0002D933C93A3E3B2E0BA93AA93A4E8B2E09E
:1023F000BA93AA93A8EFB2E0BA93AA93AFE3B2E07C
:10240000BA93AA93ACE3B3E0BA93AA93A0E4B3E07F
:10241000BA93AA93A2E8B3E0BA93AA93A3E8B3E06D
:10242000BA93AA93A4E8B3E0BA93AA930E940816B9
:10243000629600E040913302041BA1E8B3E00C93E4
:102440000C94251280E88093810340E050E060E026
:1024500070E0A8E8B2E00D911D912D913C910E9491
:10246000312211F40C94DD12939B0C944512ACE9CB
:10247000B2E00D911D912D913C91AFE3B2E00D932F
:102480001D932D933C930C945112A8E9B2E00D9149
:102490001D912D913C91AFE3B2E00D931D932D93CF
:1024A0003C9380E08093D802A8EDB2E0BA93AA935F
:1024B000A8E8B2E0BA93AA93A0E7B2E0BA93AA93CD
:1024C000AFE3B2E0BA93AA93A0EAB2E0BA93AA93B8
:1024D000A4EAB2E0BA93AA93A9EDB2E0BA93AA93A0
:1024E000AAEDB2E0BA93AA93ABEDB2E0BA93AA9385
:1024F0000E94081662960091D802003811F40C94DC
:10250000DB1200E810E020E030E0A8EDB2E04C91F2
:102510005527662777270E942C22AFE2B2E00D9361
:102520001D932D933D93AFE2B2E00D911D912D913E
:102530003C910E943A21AFE2B2E00D931D932D939E
:102540003D93ABEDB2E04C91552766277727AFE27C
:10255000B2E00D911D912D913C910E9431220CF41D
:1025600002C00C94DB12E8E5F3E00E946823EFE27E
:10257000F2E00E9463230E94E8230E947924EDE0A8
:10258000F0E0ABE3B2E00E94CC22EBE3F2E00E9489
:10259000D025EDE0F0E00E947823AFE2B2E0EDE07C
:1025A000FF270E94CC220091D80240912F02041BE9
:1025B000A8EDB2E00C930C94E01280E88093D8026E
:1025C00040E050E060E070E0ACE8B2E00D911D91B9
:1025D0002D913C910E94312211F40C949813949BFC
:1025E0000C940013ACEAB2E00D911D912D913C9139
:1025F000AFE3B2E00D931D932D933C930C940C1319
:10260000A8EAB2E00D911D912D913C91AFE3B2E0AB
:102610000D931D932D933C9380E08093DC02ACEDF1
:10262000B2E0BA93AA93ACE8B2E0BA93AA93A4E753
:10263000B2E0BA93AA93AFE3B2E0BA93AA93A0EB45
:10264000B2E0BA93AA93A4EBB2E0BA93AA93ADED29
:10265000B2E0BA93AA93AEEDB2E0BA93AA93AFED0B
:10266000B2E0BA93AA930E94081662960091DC0227
:10267000003811F40C94961300E810E020E030E0EC
:10268000ACEDB2E04C915527662777270E942C22AB
:10269000AFE2B2E00D931D932D933D93AFE2B2E014
:1026A0000D911D912D913C910E943A21AFE2B2E033
:1026B0000D931D932D933D93AFEDB2E04C915527B3
:1026C00066277727AFE2B2E00D911D912D913C91E5
:1026D0000E9431220CF402C00C949613E8E5F3E05A
:1026E0000E946823EFE2F2E00E9463230E94E82345
:1026F0000E947924EDE0F0E0ABE3B2E00E94CC224E
:10270000EBE3F2E00E94D025EDE0F0E00E947823B8
:10271000AFE2B2E0EDE0FF270E94CC220091DC02A4
:1027200040912F02040FACEDB2E00C930C949B137C
:1027300080E88093DC0240E050E060E070E0A0E9D7
:10274000B2E00D911D912D913C910E94312211F426
:102750000C945314959B0C94BB13ACEBB2E00D910D
:102760001D912D913C91AFE3B2E00D931D932D93FC
:102770003C930C94C713A8EBB2E00D911D912D91E1
:102780003C91AFE3B2E00D931D932D933C9380E019
:102790008093E002A0EEB2E0BA93AA93A0E9B2E07F
:1027A000BA93AA93A8E7B2E0BA93AA93AFE3B2E0D0
:1027B000BA93AA93A0ECB2E0BA93AA93A4ECB2E0C5
:1027C000BA93AA93A1EEB2E0BA93AA93A2EEB2E0B2
:1027D000BA93AA93A3EEB2E0BA93AA930E94081602
:1027E00062960091E002003811F40C94511400E854
:1027F00010E020E030E0A0EEB2E04C9155276627D3
:1028000077270E942C22AFE2B2E00D931D932D9307
:102810003D93AFE2B2E00D911D912D913C910E944C
:102820003A21AFE2B2E00D931D932D933D93A3EEB9
:10283000B2E04C91552766277727AFE2B2E00D91C1
:102840001D912D913C910E9431220CF402C00C94F8
:102850005114ECE5F3E00E946823EFE2F2E00E94FD
:1028600063230E94E8230E947924EDE0F0E0ABE3CB
:10287000B2E00E94CC22EBE3F2E00E94D025EDE032
:10288000F0E00E947823AFE2B2E0EDE0FF270E9483
:10289000CC220091E00240912F02040FA0EEB2E0A2
:1028A0000C930C94561480E88093E00240E050E0D2
:1028B00060E070E0A4E9B2E00D911D912D913C9192
:1028C0000E94312211F40C940E15969B0C947614F0
:1028D000ACECB2E00D911D912D913C91AFE3B2E0D3
:1028E0000D931D932D933C930C948214A8ECB2E0AD
:1028F0000D911D912D913C91AFE3B2E00D931D938D
:102900002D933C9380E08093E402A4EEB2E0BA936E
:10291000AA93A4E9B2E0BA93AA93ACE7B2E0BA935F
:10292000AA93AFE3B2E0BA93AA93A0EDB2E0BA9350
:10293000AA93A4EDB2E0BA93AA93A5EEB2E0BA933B
:10294000AA93A6EEB2E0BA93AA93A7EEB2E0BA9326
:10295000AA930E94081662960091E402003811F4CE
:102960000C940C1500E810E020E030E0A4EEB2E09A
:102970004C915527662777270E942C22AFE2B2E0C0
:102980000D931D932D933D93AFE2B2E00D911D91F8
:102990002D913C910E943A21AFE2B2E00D931D933C
:1029A0002D933D93A7EEB2E04C91552766277727EC
:1029B000AFE2B2E00D911D912D913C910E94312228
:1029C0000CF402C00C940C15ECE5F3E00E946823B3
:1029D000EFE2F2E00E9463230E94E8230E94792440
:1029E000EDE0F0E0ABE3B2E00E94CC22EBE3F2E0FA
:1029F0000E94D025EDE0F0E00E947823AFE2B2E043
:102A0000EDE0FF270E94CC220091E40240912F02CA
:102A1000041BA4EEB2E00C930C94111580E8809393
:102A2000E40280918103D2018C9381E00E94852190
:102A300081E0D2018C9381E00E9485210E945F1782
:102A4000249682E00E9481218091D802D2018C9349
:102A500081E00E94852182E0D2018C9381E00E9476
:102A600085210E945F17249682E00E948121809137
:102A7000DC02D2018C9381E00E94852183E0D201A7
:102A80008C9381E00E9485210E945F17249682E04A
:102A90000E9481218091E002D2018C9381E00E940A
:102AA000852184E0D2018C9381E00E9485210E94DF
:102AB0005F17249682E00E9481218091E402D20176
:102AC0008C9381E00E94852185E0D2018C9381E086
:102AD0000E9485210E945F17249682E00E94812136
:102AE00040E050E060E070E0A4E8B2E00D911D919C
:102AF0002D913C910E94312211F00C948215929AF2
:102B00000C948315929840E050E060E070E0A8E8F3
:102B1000B2E00D911D912D913C910E94312211F056
:102B20000C949515939A0C94A415A0E1B0E0BA9377
:102B3000AA930E94BE1D2296013011F00C94A31599
:102B400093980C94A415939A40E050E060E070E0F4
:102B5000ACE8B2E00D911D912D913C910E94312283
:102B600011F00C94B615949A0C94C515A0E1B0E040
:102B7000BA93AA930E946E1E2296013011F00C9413
:102B8000C41594980C94C515949A40E050E060E008
:102B900070E0A0E9B2E00D911D912D913C910E9451
:102BA000312211F00C94D715959A0C94E615A0E1FA
:102BB000B0E0BA93AA930E941E1F2296013011F032
:102BC0000C94E51595980C94E615969A40E050E023
:102BD00060E070E0A4E9B2E00D911D912D913C916F
:102BE0000E94312211F00C94F815969A0C94071655
:102BF000A0E1B0E0BA93AA930E94CE1F22960130C2
:102C000011F00C94061696980C940716969A08954F
:102C1000AC85BD854D915D916D917C91AE85BF85F3
:102C20000D911D912D913C910E9431221CF011F0CB
:102C30000C941C160C94B216AE85BF850D911D9197
:102C40002D913C91AC85BD854D915D916D917C91AF
:102C50000E942C22A3E3B2E00D931D932D933D938C
:102C6000A3E3B2E04D915D916D917C91AA85BB8506
:102C70000D911D912D913C910E9431220CF402C0C6
:102C80000C94AC16A885B9854D915D916D917C91A0
:102C9000A3E3B2E00D911D912D913C910E94312250
:102CA0000CF402C00C945A16AC81BD818C91A88999
:102CB000B9898C93A3E3B2E04D915D916D917C91C4
:102CC000A885B9850D911D912D913C910E943122CD
:102CD00081E014F009F080E08F93AE81BF814D91C7
:102CE0005D916D917C91A3E3B2E00D911D912D91C9
:102CF0003C910E94312280E00CF481E09F91892375
:102D0000882311F40C948A16AA81BB818C91A8891E
:102D1000B9898C93A3E3B2E04D915D916D917C9163
:102D2000AE81BF810D911D912D913C910E94312268
:102D30000CF402C00C94A216A881B9818C91A889C8
:102D4000B9898C9300E8A889B9894C91041BA8899A
:102D5000B9890C930C94B01680E8A889B9898C9332
:102D60000C945E17AC85BD854D915D916D917C9104
:102D7000AE85BF850D911D912D913C910E94312210
:102D80000CF402C00C945A17AC85BD850D911D91B1
:102D90002D913C91AE85BF854D915D916D917C915A
:102DA0000E942C22A3E3B2E00D931D932D933D933B
:102DB000A3E3B2E04D915D916D917C91AA85BB85B5
:102DC0000D911D912D913C910E9431220CF402C075
:102DD0000C945417A885B9854D915D916D917C91A6
:102DE000A3E3B2E00D911D912D913C910E943122FF
:102DF0000CF402C00C940217AC81BD818C91A8899F
:102E0000B9898C93A3E3B2E04D915D916D917C9172
:102E1000A885B9850D911D912D913C910E9431227B
:102E200081E014F009F080E08F93AE81BF814D9175
:102E30005D916D917C91A3E3B2E00D911D912D9177
:102E40003C910E94312280E00CF481E09F91892323
:102E5000882311F40C943217AA81BB818C91A88924
:102E6000B9898C93A3E3B2E04D915D916D917C9112
:102E7000AE81BF810D911D912D913C910E94312217
:102E80000CF402C00C944A17A881B9818C91A889CE
:102E9000B9898C9300E8A889B9894C91040FA88955
:102EA000B9890C930C94581780E8A889B9898C9338
:102EB0000C945E1780E8A889B9898C930895AA813B
:102EC000BB818C91ABE4B1E08D9388278C93A88172
:102ED000B9810C9140E1049FA2E0B1E00C929CE02A
:102EE000ABE4B1E00E94F82194E0AA81BB810E948A
:102EF0000322AA81BB810C9140910201040FAA8197
:102F0000BB810C93ABE4B1E00D911C91AA81BB8114
:102F10004D915527040F151FABE4B1E00D931C93A1
:102F2000C49892E0ABE4B1E00E944821C49AC698EC
:102F3000C69A089577B77E7F77BF77B77F7B77BFD5
:102F400077B77B7F77BFA895E0E5FCE40E9421225C
:102F50000E94D5200E94DC2080E080937D03ADE7B5
:102F6000B3E0BA93AA930E948F082296ADE7B3E02C
:102F70008C9180588C9380917D03D2018C9381E059
:102F80000E94852180E0D2018C9381E00E948521FE
:102F90000E945F17249682E00E9481217FE772BB26
:102FA000909A91988FEF93E0ABE2B2E08D939C936F
:102FB00081E094E0ADE2B2E08D939C930E94DF1932
:102FC0000E94C520A0E0B1E08C930091000107377A
:102FD00011F00C94ED170C94EB17ABE2B2E04D91AD
:102FE0005C91AAEEB2E00D911C910417150781E0E7
:102FF00008F480E08F93ADE2B2E04D915C91AAEECF
:10300000B2E00D911C910417150781E010F009F052
:1030100080E09F918923882311F40C942118A8EE55
:10302000B2E08D919C91ACEFB2E08D939C93ACEEAD
:10303000B2E08D919C91A9E7B3E08D939C930C94A1
:1030400023180C94DE17A9E7B3E00D911C910150F1
:103050001040ABE2B2E00D931C93A9E7B3E00D91F1
:103060001C910F5F1F4FADE2B2E00D931C930E94C5
:10307000DF190E94C520A0E0B1E08C93009100010F
:10308000073711F00C9446180C944418ABE2B2E0E8
:103090004D915C91AAEEB2E00D911C9104171507B9
:1030A00081E008F480E08F93ADE2B2E04D915C9155
:1030B000AAEEB2E00D911C910417150781E010F003
:1030C00009F080E09F918923882311F40C948E18D5
:1030D000A8EEB2E00D911C9122273327ACEFB2E0AD
:1030E0004D915C91662777270E942C22AEEFB2E0CB
:1030F0000D931D932D933D93AEEFB2E00D911D9175
:103100002D913C910E943A21AEEFB2E00D931D93B8
:103110002D933D930C94A7180C94A518AAEEB2E039
:103120000D911C91083D5EE0150718F011F00C940C
:103130009B180C94A518E4E5FCE40E9421220E944F
:10314000D5200E94DC200C94A3180C94371880E042
:1031500080937D0380917D03D2018C9381E00E9456
:10316000852180E0D2018C9381E00E9485210E941C
:103170005F17249682E00E94812190989198A9E798
:10318000B3E00D911C9100501440A2E0B3E00D9308
:103190001C93E8E5FCE40E9421220E94D520ECEF7C
:1031A000F2E0A0E2BFE00E9444220E94CD200E94F3
:1031B000DC20EF93FF93E4E2F0E00E944521FF91D1
:1031C000EF91ECE5FCE40E9421220E94D520EEEF75
:1031D000F2E0A0E2BFE00E9447220E94CD200E94C0
:1031E000DC20EF93FF93E4E2F0E00E944521FF91A1
:1031F000EF91E0E6FCE40E9421220E94D520E2E06B
:10320000F3E0A0E2BFE00E9444220E94CD200E9491
:10321000DC20EF93FF93E4E2F0E00E944521FF9170
:10322000EF9170915002706870935002A7E0B1E086
:1032300088278C930E94C920A0E0B1E08C93009174
:1032400000010F3211F00C9427190C943319A0E0EF
:10325000B1E08C91A7E0B1E00E94BE208D93882759
:103260008C930C941A19A7E0B1E00E949A22ABE467
:10327000B1E00D931C93ACEFB2E04D915C91ABE4E7
:10328000B1E00D911C910417150711F40C944D1920
:10329000709150027F7770935002A7E0B1E08827C9
:1032A0008C930E94C920A0E0B1E08C9300910001B2
:1032B0000F3211F00C945E190C946A19A0E0B1E081
:1032C0008C91A7E0B1E00E94BE208D9388278C935B
:1032D0000C945119A7E0B1E00E949A22A3E4B2E055
:1032E0000D931C93AEEFB2E04D915D916D917C9189
:1032F000A3E4B2E00D911D9117FB1EF42FEF3FEFF9
:1033000002C0222733270E94312211F40C948D1918
:10331000709150027F7770935002A7E0B1E0882748
:103320008C930E94C920A0E0B1E08C930091000131
:103330000F3211F00C949E190C94AA19A0E0B1E080
:103340008C91A7E0B1E00E94BE208D9388278C93DA
:103350000C949119A7E0B1E00E949A22ABE4B1E08D
:103360000D931C93A2E0B3E04D915C91ABE4B1E00E
:103370000D911C910417150711F40C94C419709148
:1033800050027F7770935002A0E5B2E08C9187FBEA
:1033900016F00C94CD190C94CF190C94C918E4E6CE
:1033A000FCE40E9421220E94D5200E94DC2077B7F5
:1033B000716077BF77B7706477BFA8950895A895B7
:1033C00081E08093020100910201033018F011F0B6
:1033D0000C941F1A80E090E0A2E0B1E0AD90BB2415
:1033E000A8E5B2E0AA0CBB1CAA0DBB1D8D939C9353
:1033F000A2E0B1E0AD90BB24A8E5B2E0AA0CBB1CF2
:10340000AA0DBB1DBA93AA9380910201D2018C939D
:1034100081E00E94852188E0D2018C9381E00E94A6
:1034200085210E94D30D269682E00E948121A2E090
:10343000B1E08C918F5F8C9310F40C94E319AAE5A2
:10344000B2E08D919C91A8EEB2E08D939C93ACE597
:10345000B2E08D919C91AAEEB2E08D939C93AEE583
:10346000B2E08D919C91ACEEB2E08D939C93089567
:1034700077B77E7F77BF77B77F7B77BF77B77B7F65
:1034800077BFA895E0E5FCE40E9421220E94D520A8
:103490000E94DC2080E080938103A1E8B3E0BA932E
:1034A000AA930E948F08229680918103D2018C9367
:1034B00081E00E94852181E0D2018C9381E00E940D
:1034C00085210E945F17249682E00E9481217FE778
:1034D00072BB9098919892988FEF93E0ABE2B2E034
:1034E0008D939C9381E094E0ADE2B2E08D939C9348
:1034F0000E947B1C0E94C520A0E0B1E08C9300914B
:103500000001073711F00C94871A0C94851AABE26E
:10351000B2E04D915C91A4EFB2E00D911C910417C3
:10352000150781E008F480E08F93ADE2B2E04D91A1
:103530005C91A4EFB2E00D911C910417150781E096
:1035400010F009F080E09F918923882311F40C94F6
:10355000BB1AA2EFB2E08D919C91ACE0B3E08D93E9
:103560009C93A6EFB2E08D919C91ABE7B3E08D9375
:103570009C930C94BD1A0C94781AABE7B3E00D91B0
:103580001C9101501040ABE2B2E00D931C93ABE7ED
:10359000B3E00D911C910F5F1F4FADE2B2E00D93B0
:1035A0001C930E947B1C0E94C520A0E0B1E08C937C
:1035B00000910001073711F00C94E01A0C94DE1A08
:1035C000ABE2B2E04D915C91A4EFB2E00D911C91A1
:1035D0000417150781E008F480E08F93ADE2B2E0B4
:1035E0004D915C91A4EFB2E00D911C910417150769
:1035F00081E010F009F080E09F918923882311F485
:103600000C94281BA2EFB2E00D911C9122273327C6
:10361000ACE0B3E04D915C91662777270E942C22A5
:10362000AEE0B3E00D931D932D933D93AEE0B3E078
:103630000D911D912D913C910E943A21AEE0B3E095
:103640000D931D932D933D930C94411B0C943F1BA4
:10365000A4EFB2E00D911C91083D5EE0150718F053
:1036600011F00C94351B0C943F1BE4E5FCE40E9424
:1036700021220E94D5200E94DC200C943D1B0C943A
:10368000D11A80E88093810380918103D2018C93C9
:1036900081E00E94852181E0D2018C9381E00E942B
:1036A00085210E945F17249682E00E948121929AD0
:1036B000ABE7B3E00D911C9100501440A2E1B3E0E0
:1036C0000D931C93E8E6FCE40E9421220E94D52081
:1036D000ECE0F3E0A0E2BFE00E9444220E94CD2093
:1036E0000E94DC20EF93FF93E4E2F0E00E9445218A
:1036F000FF91EF91ECE6FCE40E9421220E94D5208C
:10370000EEE0F3E0A0E2BFE00E9447220E94CD205D
:103710000E94DC20EF93FF93E4E2F0E00E94452159
:10372000FF91EF91E0E7FCE40E9421220E94D52066
:10373000E2E1F3E0A0E2BFE00E9444220E94CD203B
:103740000E94DC20EF93FF93E4E2F0E00E94452129
:10375000FF91EF9170915002706870935002A7E052
:10376000B1E088278C930E94C920A0E0B1E08C933F
:10377000009100010F3211F00C94C01B0C94CC1B73
:10378000A0E0B1E08C91A7E0B1E00E94BE208D9353
:1037900088278C930C94B31BA7E0B1E00E949A2277
:1037A000ABE4B1E00D931C93ACE0B3E04D915C91C0
:1037B000ABE4B1E00D911C910417150711F40C94C2
:1037C000E61B709150027F7770935002A7E0B1E042
:1037D00088278C930E94C920A0E0B1E08C930091CF
:1037E00000010F3211F00C94F71B0C94031CA0E0A5
:1037F000B1E08C91A7E0B1E00E94BE208D938827B4
:103800008C930C94EA1BA7E0B1E00E949A22A3E4F7
:10381000B2E00D931C93AEE0B3E04D915D916D91DC
:103820007C91A3E4B2E00D911D9117FB1EF42FEFE4
:103830003FEF02C0222733270E94312211F40C945B
:10384000261C709150027F7770935002A7E0B1E080
:1038500088278C930E94C920A0E0B1E08C9300914E
:1038600000010F3211F00C94371C0C94431CA0E0A3
:10387000B1E08C91A7E0B1E00E94BE208D93882733
:103880008C930C942A1CA7E0B1E00E949A22ABE42E
:10389000B1E00D931C93A2E1B3E04D915C91ABE4D8
:1038A000B1E00D911C910417150711F40C945D1CE7
:1038B000709150027F7770935002A0E5B2E08C9136
:1038C00087FB16F00C94661C0C94681C0C94621B0D
:1038D000E4E6FCE40E9421220E94D5200E94DC2024
:1038E00077B7716077BF77B7706477BF77B7746069
:1038F00077BFA8950895A89584E080930201009170
:103900000201063018F011F00C94BB1C80E090E02E
:10391000A2E0B1E0AD90BB24A8E5B2E0AA0CBB1CCC
:10392000AA0DBB1D8D939C93A2E0B1E0AD90BB248A
:10393000A8E5B2E0AA0CBB1CAA0DBB1DBA93AA93C2
:1039400080910201D2018C9381E00E94852188E060
:10395000D2018C9381E00E9485210E94D30D26968E
:1039600082E00E948121A2E0B1E08C918F5F8C9374
:1039700010F40C947F1CA0E6B2E08D919C91A2EF14
:10398000B2E08D939C93A2E6B2E08D919C91A4EF5E
:10399000B2E08D939C93A4E6B2E08D919C91A6EF4A
:1039A000B2E08D939C9308950F921F922F923F92B5
:1039B0004F925F927F92AF92BF920F931F932F937C
:1039C0003F934F935F936F937F938F939F93AF93A7
:1039D000BF93CF93DF93EF93FF938FB78F938BB703
:1039E0008F9388278BBFA2E5B2E08C918F5F8C9379
:1039F000009152020F3F11F00C94041D809155026A
:103A0000809352020E94EE0E8F918BBF8F918FBFD9
:103A1000FF91EF91DF91CF91BF91AF919F918F91E6
:103A20007F916F915F914F913F912F911F910F91D6
:103A3000BF90AF907F905F904F903F902F901F90DE
:103A40000F9018950F921F922F923F924F925F9274
:103A50007F92AF92BF920F931F932F933F934F93F9
:103A60005F936F937F938F939F93AF93BF93CF9306
:103A7000DF93EF93FF938FB78F938BB78F93882745
:103A80008BBFA3E5B2E08C918F5F8C9300915302C2
:103A90000F3F11F00C94521D8091560280935302F7
:103AA0000E94940B8F918BBF8F918FBFFF91EF91ED
:103AB000DF91CF91BF91AF919F918F917F916F9146
:103AC0005F914F913F912F911F910F91BF90AF90B8
:103AD0007F905F904F903F902F901F900F90189580
:103AE0000F921F922F923F924F925F927F92AF92CE
:103AF000BF920F931F932F933F934F935F936F93B7
:103B00007F938F939F93AF93BF93CF93DF93EF9365
:103B1000FF938FB78F938BB78F9388278BBFA4E5C5
:103B2000B2E08C918F5F8C93009154020F3F11F0A3
:103B30000C94A01D80915702809354020E94B608F5
:103B40008F918BBF8F918FBFFF91EF91DF91CF91BD
:103B5000BF91AF919F918F917F916F915F914F91A5
:103B60003F912F911F910F91BF90AF907F905F90E9
:103B70004F903F902F901F900F90189584E00E94D7
:103B8000852181E0AA81BB818C93A5E6B3E04D91AC
:103B90005C9166277727A0E7B2E00D911D912D91EA
:103BA0003C910E94312280E00CF481E08F930091DF
:103BB000D802003880E010F009F081E09F9189235D
:103BC000882311F40C94E81D80E0AA81BB818C93BA
:103BD000A7E6B3E04D915C9166277727A0E7B2E0B6
:103BE0000D911D912D913C910E94312280E014F0A5
:103BF00009F081E08F930091D802003881E008F04D
:103C000080E09F918923882311F40C940B1E80E09F
:103C1000AA81BB818C9300917503003011F00C9444
:103C20005B1EA0E7B2E00D911D912D913C91A4E7A0
:103C3000B2E04D915D916D917C910E942C22A88102
:103C4000B9810D931D932D933D93A881B9810D9159
:103C50001D912D913C910E943A21A881B9810D932B
:103C60001D932D933D93A1E6B3E04D915C916627A2
:103C70007727A881B9810D911D912D913C910E94CA
:103C8000312280E00CF481E08F930091D80200385B
:103C900080E010F009F081E09F918923882311F4DE
:103CA0000C94591E80E0AA81BB818C9384E08093A0
:103CB00075030C94681E0091D802003818F011F0BA
:103CC0000C94641E0C94681E80E0AA81BB818C93C6
:103CD00084E0481A80E0580A2296089584E00E9401
:103CE000852181E0AA81BB818C93A9E6B3E04D9147
:103CF0005C9166277727A4E7B2E00D911D912D9185
:103D00003C910E94312280E00CF481E08F9300917D
:103D1000DC02003880E010F009F081E09F918923F7
:103D2000882311F40C94981E80E0AA81BB818C93A7
:103D3000ABE6B3E04D915C9166277727A4E7B2E04C
:103D40000D911D912D913C910E94312280E014F043
:103D500009F081E08F930091DC02003881E008F0E7
:103D600080E09F918923882311F40C94BB1E80E08E
:103D7000AA81BB818C9300917603003011F00C94E2
:103D80000B1FA4E7B2E00D911D912D913C91A0E78E
:103D9000B2E04D915D916D917C910E942C22A881A1
:103DA000B9810D931D932D933D93A881B9810D91F8
:103DB0001D912D913C910E943A21A881B9810D93CA
:103DC0001D932D933D93A1E6B3E04D915C91662741
:103DD0007727A881B9810D911D912D913C910E9469
:103DE000312280E00CF481E08F930091DC020038F6
:103DF00080E010F009F081E09F918923882311F47D
:103E00000C94091F80E0AA81BB818C9384E080938D
:103E100076030C94181F0091DC02003818F011F0A2
:103E20000C94141F0C94181F80E0AA81BB818C9302
:103E300084E0481A80E0580A2296089584E00E949F
:103E4000852181E0AA81BB818C93ADE6B3E04D91E1
:103E50005C9166277727A8E7B2E00D911D912D911F
:103E60003C910E94312280E00CF481E08F9300911C
:103E7000E002003880E010F009F081E09F91892392
:103E8000882311F40C94481F80E0AA81BB818C9395
:103E9000AFE6B3E04D915C9166277727A8E7B2E0E3
:103EA0000D911D912D913C910E94312280E014F0E2
:103EB00009F081E08F930091E002003881E008F082
:103EC00080E09F918923882311F40C946B1F80E07C
:103ED000AA81BB818C9300917703003011F00C9480
:103EE000BB1FA8E7B2E00D911D912D913C91ACE76D
:103EF000B2E04D915D916D917C910E942C22A88140
:103F0000B9810D931D932D933D93A881B9810D9196
:103F10001D912D913C910E943A21A881B9810D9368
:103F20001D932D933D93A3E6B3E04D915C916627DD
:103F30007727A881B9810D911D912D913C910E9407
:103F4000312280E00CF481E08F930091E002003890
:103F500080E010F009F081E09F918923882311F41B
:103F60000C94B91F80E0AA81BB818C9384E080937C
:103F700077030C94C81F0091E002003818F011F08C
:103F80000C94C41F0C94C81F80E0AA81BB818C9341
:103F900084E0481A80E0580A2296089584E00E943E
:103FA000852181E0AA81BB818C93A1E7B3E04D918B
:103FB0005C9166277727ACE7B2E00D911D912D91BA
:103FC0003C910E94312280E00CF481E08F930091BB
:103FD000E402003880E010F009F081E09F9189232D
:103FE000882311F40C94F81F80E0AA81BB818C9384
:103FF000A3E7B3E04D915C9166277727ACE7B2E089
:104000000D911D912D913C910E94312280E014F080
:1040100009F081E08F930091E402003881E008F01C
:1040200080E09F918923882311F40C941B2080E069
:10403000AA81BB818C9300917803003011F00C941D
:104040006B20ACE7B2E00D911D912D913C91A8E75A
:10405000B2E04D915D916D917C910E942C22A881DE
:10406000B9810D931D932D933D93A881B9810D9135
:104070001D912D913C910E943A21A881B9810D9307
:104080001D932D933D93A3E6B3E04D915C9166277C
:104090007727A881B9810D911D912D913C910E94A6
:1040A000312280E00CF481E08F930091E40200382B
:1040B00080E010F009F081E09F918923882311F4BA
:1040C0000C94692080E0AA81BB818C9384E080936A
:1040D00078030C9478200091E402003818F011F075
:1040E0000C9474200C94782080E0AA81BB818C937E
:1040F00084E0481A80E0580A2296089509D00E9468
:10410000C52100FC10D0089503D01ED001F8F9CFCE
:104110000024E89457FF02C009D0689400F80BD03F
:1041200010F80124089502D009D0089550954095C3
:104130004F5F5F4F0895E89417FF0895009510951D
:104140000F5F1F4F68940895352F242FE894452B57
:1041500011F468940895512F402F0027112780E112
:10416000440F551F001F111F021B130B416018F451
:10417000020F131F4E7F8A9599F708958F938D91A3
:104180008823E9F711978F91089588275F9B0895F9
:1041900000C05F9BFECF8CB10895A0E2BFE08D917F
:1041A000882311F00CD0FBCF08950E940B22802DA4
:1041B00011F005D0FACF08958DE001D08AE05D9B23
:1041C000FECF8CB9089500FC05D0089530D005D0FD
:1041D00001F8F9CF37D03FD00895842F952FA62F1F
:1041E000B72FE894452B462B472B11F4689408957C
:1041F000402F512F622F732F00271127222733279B
:10420000F0E2440F551F661F771F001F111F221F6A
:10421000331F081B190B2A0B3B0B416028F4080FB6
:10422000191F2A1F3B1F4E7FFA9559F70895002446
:10423000E89477FF02C006D0689400F809D010F81F
:104240000124089512D04F5F5F4F6F4F7F4F089545
:10425000E89437FF089500951095209530950F5FED
:104260001F4F2F4F3F4F689408954095509560958C
:104270007095089537FF0895009510952095309515
:104280000F5F1F4F2F4F3F4F08953197F1F708955C
:104290000E945B218D910E945F219A95D9F70E941F
:1042A0005D210895B99ABB98C39ABA9AB89AC09AF0
:1042B00081E58DB90895C0980895C09A08958FB981
:1042C000779BFECF8FB10895689462F80895E894C3
:1042D00062F80895EF93FF93EE27E82BE92B31F076
:1042E000E0EDF7E03197F1F70197D1F7FF91EF910A
:1042F000089501911191219130810895481A590A28
:104300000895481A8827580A089599275A924A9278
:10431000480E591E0895FD01002703959D91081729
:1043200009F091939923C9F70895689401C0E8941E
:1043300031963324A250B0400D0182E090E0D001CC
:104340001ED00D911D918130930580F079F0149766
:104350004D915D914017510716F040F001C034F0C7
:1043600029F04D935D9301971297EDCFD00107D0BF
:104370000D931D930196E817F90709F708955C015D
:10438000AA0CBB1CAA0DBB1D08950F92B801469F35
:104390008001479F100D569F100D0F9008950F92AA
:1043A0001F922F92C801D901489F80014A9F900116
:1043B0004B9F202C499F100D211D321D5A9F202CF0
:1043C000589F100D211D321D599F200D311D689FD2
:1043D000200D311D699F300D789F300D2F901F905B
:1043E0000F9008950E940B220D920020D9F7089596
:1043F000903041F00D911C91000F111F9A95E1F73B
:104400001C930E930895903029F08C9186959A957F
:10441000E9F78C930895D895319628F48F938BB74C
:1044200083958BBF8F910020089588279D91890FD8
:104430009923E1F708950F9301E00BBF0F91889442
:1044400008950F930027F9CF0F9302E0F6CF040FE2
:10445000151F261F371F0895041B150B260B370B3E
:10446000089504171507260737070895000F111F31
:10447000221F331F089500951095209530950F5FEA
:104480001F4F2F4F3F4F0895019110810FC00E9481
:1044900079210EC00E94792110C00191108117FF6F
:1044A00005C03FEF2FEF04C00081112722273327DB
:1044B00037FF03C0E0DF8DE28D93CF92DF92EF9262
:1044C000AA24BB24CC24DD24EE2440E2EAE0FF272A
:1044D00055E093E38081890F87FD9F7083FD907F76
:1044E000891B81935A95A9F7C1DFAA1CBB1CCC1C60
:1044F000DD1CEE1C4A9551F7E894EFE0FF2782910E
:104500000CD0EB30E0F71EF068948A2D0AD0882793
:104510008D93EF90DF90CF900895982F829501D0E2
:10452000892F8F70805D26F0803309F40895689498
:104530008D93089500271127222733271DD08A3312
:1045400028F4803318F005D015D0F9CF0EF493CFAE
:10455000089580538F93402F512F622F732F86DF42
:1045600085DF75DF83DF8F919927080F191F291FBA
:10457000391F08958D910895E894FCDF8032E9F3A6
:104580008B32D9F38930C9F38D3211F46894F2CFAC
:10459000089588278D93089594E081918D939A953D
:1045A000E1F70895002331F081918D930A958823D6
:1045B000C9F70895EECFFF93881BF9E0001FFA9525
:1045C00011F4FF910895881F841B18F4840F8894B8
:1045D000F5CF0894F3CF689401C0E894AF93BF93EC
:1045E0008D9116F0919103C00E940B22902D891796
:1045F00018F011F48823A1F7BF91AF910895689442
:1046000001C0E8942227102F231709F4089526F4F7
:104610000E940B22802D01C08191803081F089178A
:1046200041F070E08D931A9591F7239571E01D93F9
:10463000EACF01D0E8CF703011F0772708957723C3
:1046400031F42395882713958D931A95E9F70895EA
:10465000B7FE089590E8B91611F4D0FE08959FEFC3
:10466000D91AE90AF90A09F40395089588E00FB602
:10467000F8945A924A92E42DF52DA42DB52D480EAA
:104680008827581E0FBE08950FB6F8944990599088
:104690000FBE08950F928F939F93D216E306F406F0
:1046A0000FB680E890E8802795270FBE890739F07C
:1046B0000FB6892B87FD02C081E008260FBE9F91AF
:1046C0008F910F900895D190E190F190019108950C
:1046D00021913191419151910895DD92ED92FD9298
:1046E0000C930895502F2D2D3E2D4F2D612F0895A1
:1046F000EADF992711278F2D880F80E8F82A802F6D
:10470000881F08F41FEF41F08F57082F07FD04C0E2
:10471000003240F08FEF01C08827982FD82EE82E66
:10472000F82E09C08FE1801B082FF694E794D794E8
:1047300097950A95D1F7112351F09095D094E09474
:10474000F09481E0980F8827D81EE81EF81E0F2DE0
:10475000FE2CED2CD92E0895D094E094F09491E0A5
:10476000D90E9927E91EF91E10950895652F90E836
:10477000440F551F5927990F47956078102F90E8DF
:10478000FF0C001F0927990FF7941078003808953F
:10479000FF0C90E89027110F9795F794092F089533
:1047A0001127BD2CDE2CEF2CF02E0EE1FF2039F46A
:1047B000FE2CED2CDB2CBB240850C2F775C032F068
:1047C0000A95BB0CDD1CEE1CFF1CF9CF41DFE0CFCE
:1047D000102FBD2CDE2CEF2CF02E11234AF4B094B8
:1047E000D094E094F0949FEFB91AD90AE90AF90A33
:1047F0000EE1FF2039F4FE2CED2CDB2CBB240850FD
:10480000C2F752C032F00A95BB0CDD1CEE1CFF1C37
:10481000F9CF1EDFBDCF2DEC3CEC4CEC5DE3662701
:104820000FC051DF5FDFDD24EE2490E8F92E0FE3A7
:1048300007C04EDF05C02227332740E251E4662738
:10484000552351F1002381F191DF71F116270058B2
:1048500050580894050B18F407FD03C025C007FD48
:1048600023C0469537952795F694E794D79425D09D
:10487000FF202AF0DD0CEE1CFF1C015073F09D2D73
:10488000969548F0DD203AF4EE202AF491E0D90E16
:104890009927E91EF91E7CCF07C09FE7092FF92A47
:1048A0009FEFD92EE92E0895DD24EE24FF24002762
:1048B000112708950FE79FEFF2CF9F929924AA2422
:1048C000BB2488E1D216E306F40628F0D21AE30AE4
:1048D000F40A089401C08894991CAA1CBB1CDD0C26
:1048E000EE1CFF1C8A9571F7D92CEA2CFB2C9F90AB
:1048F00008953CDFD9F05038C9F016270058952F9D
:1049000090580894091F12F418F40EC008F00EC055
:104910000FD0FF202AF0BB0CDD1CEE1CFF1C02C0D8
:10492000039513F095DE34CF0C944D240C9454244D
:104930009F92FF92EF928D2DFF24EE24DD24BB2465
:1049400093E0849F1001829FB00CD11CE21CF31CE9
:10495000839FD00CE11C2224F21C9A9531F0BD2CCF
:10496000DE2CEF2CFF248F91ECCF9F900895B0DECA
:10497000FDDE503829F090E869270CC00AF045D0D8
:1049800007CF5FE322273327442701C0A1DEEEDEF5
:104990005038B1F3003899F3902F951B8BF312F434
:1049A00034D0FACF983118F0222733274427983093
:1049B00028F0232F342F44279850F9CF992329F03A
:1049C0004695379527959A95D9F7912F962742F0D6
:1049D00014D0B0F6F794E794D7940F5F8BF65DCFC1
:1049E00010D051F008F4B8DEFF2052F2DD0CEE1CBE
:1049F000FF1C0150CBF751CF57CFD20EE31EF41E50
:104A00000895D21AE30AF40A0895DF92EF92FF9212
:104A10000F931F93D22EE32EF42E052F162F6F9196
:104A20005F914F913F912F9108950E940B22202D6D
:104A30000E940B22302D0E940B22402D0E940B223F
:104A4000502D089540DE92DE0395AAF087E1DD0C3B
:104A5000EE1CFF1C8A9589F00A95CAF7FF205AF0D0
:104A600000240D280E280F28002039F00A95DD0CAF
:104A7000EE1CFF1CDAF70A958BCE16CF24DE85E0FC
:104A8000F6DD0F7723E839EF42E25EE332DFDBDF6A
:104A900024DE139727D08A3F40F000688D3F18F43A
:104AA00070DF80E803C077D072DF882784831ADE46
:104AB00020DF13DE139729EA3EE64CE952EC19DFBA
:104AC00022E332E541E852E452D022ED32EE4DE9E4
:104AD00051EC4DD020E93FEF4FE75FE358DF848191
:104AE0000827D2CD802F9F2D991F881F991F881FBF
:104AF0000895E9DD80E003C0E6DD802F807888231B
:104B000021F0DF92EF92FF920F938F930E94B623D2
:104B1000802F839512F4C8DE1BC080958A95885E2D
:104B20000AF415C088501AF40CD0D92210C0DD2424
:104B300088501AF406D0E9220AC0EE2402D0F922E5
:104B400006C09FEF8770990F8A95EAF7089520DED7
:104B50008F918823D9F35F914F913F912F910F93BC
:104B600099DD0F9199F390F316D0506810CF0FDFB5
:104B7000AFDD3497BECEA7DD25E33AEF4EE85CE328
:104B8000B8CEA1DD002331F02BED3FE049EC5FEB27
:104B9000FEDE75CF89CE5FE340E8332722270895F4
:104BA00092DD0F930F77EDDEA8DF8F918078082BD1
:104BB0000895000080440000C842696E6900737562
:104BC0006D00400064696100610062006300640080
:104BD000650066007300780077005300740075006C
:104BE0002400790072657100262626006D006E0093
:104BF0006F0070007100720067636F0067663100BC
:104C00006766320067666E0063636F00636631003B
:104C10006366320063666E0077636F0078636F00CF
:104C200079636F007A636F00676E6400636C640081
:104C3000783164007832640079316400793264003C
:104C400053535300636363007373730061646300C1
:104C50006C6E76006C6E6B0063343300633434002A
:104C6000633435006C6F6B00633436006334370097
:044C70006334380071
:00000001FF
